:020000021000EC
:10C000000000022075C301005DC301005FC3010091
:10C0100061C3010063C3010065C3010000000000AB
:10C0200000000000000000000000000067C30100E5
:10C0300069C30100000000006BC301006DC3010073
:10C040006FC301006FC30100211002006FC3010024
:10C05000711E02006FC30100190F02006FC30100BF
:10C060006FC301006FC301006FC301006FC3010004
:10C070006FC301006FC301006FC301006FC30100F4
:10C080006FC30100D1E701006FC301006FC301005E
:10C090006FC301006FC30100E14902006FC30100DB
:10C0A0006FC301006FC301006FC301006FC30100C4
:10C0B0006FC301006FC3010000000000000000001A
:10C0C0006FC301006FC301006FC301006FC30100A4
:10C0D0006FC301006FC301006FC301006FC3010094
:10C0E0006FC301000000000000000000000000001D
:10C0F000000000006FC30100000000006FC30100DA
:10C10000000000000000000000000000000000002F
:10C11000000000000000000000000000000000001F
:10C12000000000000000000000000000000000000F
:10C1300000000000000000000000000000000000FF
:10C1400000000000000000000000000000000000EF
:10C1500000000000000000000000000000000000DF
:10C1600000000000000000000000000000000000CF
:10C1700000000000000000000000000000000000BF
:10C1800000000000000000000000000000000000AF
:10C19000000000000000000000000000000000009F
:10C1A000000000000000000000000000000000008F
:10C1B000000000000000000000000000000000007F
:10C1C000000000000000000000000000000000006F
:10C1D000000000000000000000000000000000005F
:10C1E000000000000000000000000000000000004F
:10C1F000000000000000000000000000000000003F
:10C20000354936480A1A02D0072291438D463449EF
:10C2100034480A1A06D00722914381F30988022282
:10C2200082F3148830483149314A00F044F83148EB
:10C230003149324A00F03FF831483249324A00F081
:10C240003AF832483249334A00F035F83248334937
:10C25000334A00F030F833483349344A00F02BF8C1
:10C2600033483449344A00F026F83448344900222F
:10C2700000F02CF833483449002200F027F8334806
:10C280003349091A082902DB002202604160314A61
:10C2900090471F481F49884205D00268043003B404
:10C2A000904703BCF7E700208646EC4600200021BB
:10C2B000294A9047FEE7884207D0521A05D00378F2
:10C2C00001300B700131013AF9D17047884202D038
:10C2D00002700130FAE770470000022000F80120E8
:10C2E00000000220000002200C6E02000C2600203C
:10C2F0009C260020D0C30100D0C30100725102006F
:10C300000C6E02000C2600200C2600203852020081
:10C3100038520200385202003852020038520200ED
:10C320003852020038520200385202000A6E0200EF
:10C330009C6E02009C2600209C2600209C2600204B
:10C340005032002050320020503200205032002065
:10C35000503A00209DC301003D310200FEE7FEE798
:10C36000FEE7FEE7FEE7FEE7FEE7FEE7FEE7FEE7A5
:10C3700000F002B8FFF7FCBF0F484FF007018843F9
:10C3800085460E4880470E48016841F470010160FF
:10C39000BFF34F8FBFF36F8FFFF732BF09480A49D2
:10C3A0000A4A884207D0521A05D0037801300B7030
:10C3B0000131013AF9D170470000022059FE010015
:10C3C00088ED00E0385202000C2600200C260020E8
:10C3D00000B585B00190019B002B0AD0074B43F0BC
:10C3E00001030393019B9B010293039B02989847CF
:10C3F00000E000BF05B05DF804FB00BF5052020032
:10C4000000B583B00190019B002B0AD04FF47A70E5
:10C41000FFF7DEFF019B013B0193019B002BF5D150
:10C4200000E000BF03B05DF804FB08B507F004F8B6
:10C4300000BF08BD00B589B0039002910192019B35
:10C44000002B33D00023079303230693029A079B04
:10C450001344019A1946002006F09EFF0590079AA2
:10C46000059B13440793019A059BD31A0193059BDF
:10C47000002B13D10F4B1B7883F00103DBB2002B91
:10C4800013D10120FFF7BCFF069B013B0693069BDF
:10C49000002B03D1074B00221A7007E0054B012245
:10C4A0001A70019B002BD1D100E000BF00BF09B082
:10C4B0005DF804FB9C26002000B585B00390029136
:10C4C000054B00934023054A0299039800F012F8A7
:10C4D00000BF05B05DF804FB35C40100A0260020B4
:10C4E00082B0019000BF02B0704782B0019000BFDF
:10C4F00002B0704700B5A1B0059004910392029379
:10C50000049802F0F1FF039B1593029B16930023FE
:10C51000179300238DF8603000231993229B1A9300
:10C5200000231F930FA91F9B0822049803F0B6F85D
:10C5300008231F93119B1293BDF84030ADF84C3087
:10C54000BDF84230ADF84E3000238DF851309DF8E3
:10C550003C3003F00303DBB2012B26D10F9BC3F366
:10C5600095231C939DF83C30C3F3C203DBB28DF8D6
:10C570005030BDF83C30C3F38313DBB21B931B9BDD
:10C580009A0009A91F9B049803F088F81B9B9B0045
:10C590001F9A13441F9312AA09A915AB00931346BF
:10C5A0001B9A1C9800F0CAFE2FE09DF83C3003F067
:10C5B0000303DBB2022B28D1BDF83E30C3F389134D
:10C5C0009BB21E939DF83C30C3F3C203DBB28DF8DF
:10C5D00050301E9B082B28BF08231D9307A91F9BC3
:10C5E0001D9A049803F05AF81F9A1D9B13441F9339
:10C5F0001E9A1D9BD31A1E9315AB12AA07A81D994C
:10C6000000F03EFF1E9B002BE3D1049802F07BFF5D
:10C6100000BF21B05DF804FB82B00190019BDB6894
:10C6200001225A7100BF02B07047000000B583B00C
:10C630004FF0FF330193FFF7F8FE0421084800F0A4
:10C6400099FD0190019B002B03DA0649412002F07D
:10C65000CDF80348FFF7E0FF00BF03B05DF804FB2F
:10C66000285202006852020000B583B00190009188
:10C67000019B1B681B6800990198984700BF03B095
:10C680005DF804FB00B583B00190019B1B685B68FB
:10C690000198984700BF03B05DF804FB00B583B074
:10C6A0000190019B1B689B680198984700BF03B0ED
:10C6B0005DF804FB82B001900B468DF80330019BBE
:10C6C000DB689DF803201A7100BF02B0704782B08A
:10C6D0000190019BDB681B79184602B0704782B05D
:10C6E0000190019BDB6801225A7100BF02B07047C4
:10C6F00082B00190019BDB685B79184602B07047FD
:10C7000000B585B0019000910C4B00221A700C48C6
:10C7100002F04EFE0390039B002B01D0039B08E028
:10C72000084803F07BF8084A084BD31ADB08029349
:10C730000023184605B05DF804FB00BF4828002020
:10C740009C510200DC52020028520200B05102004B
:10C75000024A034BD31ADB081846704728520200DE
:10C76000B051020000B587B001900B468DF8033040
:10C770009DF80330002B1FD0FFF7EAFF0490002341
:10C78000059313E0059B9B000E4A13440393039B00
:10C790001B881A46019B1B689A4204D1019B059A8B
:10C7A0001A60002309E0059B01330593059A049B59
:10C7B0009A42E7D3052300E00023184607B05DF84E
:10C7C00004FB00BF0C26002000B585B001900B468D
:10C7D0008DF803309DF8032001AB11461846FFF792
:10C7E000C1FF0346002B07D1019BDB00054A134420
:10C7F0000393039B1B6800E00023184605B05DF817
:10C8000004FB00BFB051020084B001900B468DF8CC
:10C810000330019BDB00174A134402939DF8033059
:10C82000013B032B1CD801A252F823F03DC80100A4
:10C8300045C801004DC8010057C8010002238DF80A
:10C840000F3011E004238DF80F300DE0029B1B79AF
:10C850008DF80F3008E0029B5B798DF80F3003E014
:10C8600000238DF80F3000BF9DF80F30184604B03C
:10C87000704700BFB051020084B0019000910023C6
:10C880008DF80F30019B1B7803F00403DBB2002B03
:10C8900024D0019B1B78C3F30103DBB2012B02D030
:10C8A000022B0CD017E0009B1B68019A1288C2F380
:10C8B0008312D2B213449A1C009B1A600BE0009BB7
:10C8C0001B68019A5288C2F3891292B213449A1CCF
:10C8D000009B1A6000BF01238DF80F309DF80F30C8
:10C8E000184604B07047000000B58BB00023ADF8C7
:10C8F00026303E4802F068F83D4802F065F83D4BAE
:10C900009B6804933C4B1B680693049A069B134058
:10C9100002339B00374A13440433089304AB19468F
:10C920000898FFF7A9FF0346002B09D0049A069B3D
:10C93000134002339B002F4A134404330893EDE75E
:10C9400000BF0023079311E0049B5A1C0492069A2F
:10C950001340079A920001A90A44264902339B001A
:10C960000B445B681360079B01330793079B012B04
:10C97000EAD99DF80430C3F30103DBB2012B10D0D8
:10C98000022B1CD1BDF80A30ADF82630BDF80630B8
:10C99000C3F389139BB203339A08049B1344049393
:10C9A00013E0BDF80A30ADF82630BDF80430C3F30B
:10C9B0008313DBB21A46049B1344049305E00F492A
:10C9C0004FF4C27001F012FF00BF094802F008F8EE
:10C9D0000590059B002B02D0049B064A9360BDF88E
:10C9E000263018460BB05DF804FB00BF602C002019
:10C9F0005C2C00204828002014260020EC52020065
:10CA000000B585B00021074801F04FFF0390039B5C
:10CA10000293029B83F310030193019B184605B018
:10CA20005DF804FB642C002000B589B003900291EE
:10CA300001920093039B1B0C0793FFF7E1FF069005
:10CA4000FFF786FE0246079B934204D3214940F23A
:10CA5000A91001F0CBFE069B1904009B5A1C0A9BEF
:10CA60001340079A0A431C4902339B000B445A6047
:10CA7000009A0A9B134002339B00174A1344043365
:10CA80000593039B03F00703D9B2059A137861F36A
:10CA9000C5031370019B03F00F03D9B2059A1388E5
:10CAA00061F389131380029BC3F31501059A136880
:10CAB00061F39F231360059A1378012161F3010349
:10CAC0001370059A13786FF38203137000BF09B0D7
:10CAD0005DF804FBEC5202004828002000B58DB040
:10CAE0000390029113468DF80730039B02330A939B
:10CAF00001238DF8273000238DF81B300DF11B0327
:10CB0000184601F039FA404B5A68029B1A603F4BB5
:10CB10001A683D4B99683C4B5B68CB1A1344013350
:10CB20000B9314E001213A4801F01EFFFFF7DCFEF1
:10CB300007900799364801F017FF344B1A68324BBB
:10CB40009968314B5B68CB1A134401330B930A9AF3
:10CB50000B9B9A42E6D89DF82730002B48D0002343
:10CB600005939DF80730002B17D09DF81430012253
:10CB700062F301038DF814309DF8143043F0040380
:10CB80008DF81430039B03F00F03DAB2BDF81430B4
:10CB900062F38913ADF8143016E09DF814300222C8
:10CBA00062F301038DF814309DF8143043F0040350
:10CBB0008DF81430039BC3F309039AB2BDF8163005
:10CBC00062F38F13ADF816300F4B5A680F4B1B688A
:10CBD000134002339B000C4A134404330893059A14
:10CBE000089B1A60084B5A680A9B1344064A536014
:10CBF0009DF81B30184601F0D5F99DF827301846EE
:10CC00000DB05DF804FB00BF48280020142600206A
:10CC1000642C002000B58BB0059004910392029320
:10CC20001F4B1B68079306AB012219460298FFF7BA
:10CC300055FF0346002B24D0069B023309930023A3
:10CC4000089311E0089B9B00039A1A44099B591C06
:10CC5000099107990B401268124902339B000B445B
:10CC60005A60089B01330893089A029B9A42E9D3C1
:10CC7000069A079B00931346029A04990598FFF7BA
:10CC8000D3FE084B1B78002B05D000BF00F068F8DE
:10CC90000346002BFAD100BF0BB05DF804FB00BFC8
:10CCA000142600204828002000B583B00190009190
:10CCB0000023002200990198FFF7ACFF00BF03B0EA
:10CCC0005DF804FB00B587B0039002910192019BCF
:10CCD000059305AA012302990398FFF79BFF00BF64
:10CCE00007B05DF804FB00B587B003900291019294
:10CCF0000093019B0493009B059304AA02230299CD
:10CD00000398FFF787FF00BF07B05DF804FB00B58D
:10CD10008BB00390029101920093019B0593009BBD
:10CD200006930C9B07930D9B08930E9B099305AAF2
:10CD3000052302990398FFF76DFF00BF0BB05DF864
:10CD400004FB0000054B9A68044B5B689A420CBFD9
:10CD500001230023DBB21846704700BF482800209B
:10CD600000B599B0FFF7EEFF0346002B01D000237A
:10CD7000C0E19B4B0022C3F81824BFF34F8F00BFC4
:10CD8000974B9B680493974B1B681093049A109BD6
:10CD9000134002339B00924A13440433119300233F
:10CDA00017930023169300230F9304AB1946119891
:10CDB000FFF762FD0346002B19D0894BD3F81834D6
:10CDC000002B14D1864B5A68049B9A4205D8844B99
:10CDD0005B68834A936000238CE1049A109B1340A4
:10CDE00002339B007E4A134404331193DDE7002392
:10CDF000159311E0049B5A1C0492109A1340159A43
:10CE0000920001A90A44764902339B000B445B68F7
:10CE10001360159B01331593159B012BEAD99DF8DF
:10CE2000043003F00303DBB2022B40F09C80BDF81A
:10CE30000630C3F389139BB20D93BDF80630C3F3DC
:10CE400089139BB2502B28BF50239BB20C930C9B91
:10CE5000C3F309039AB2BDF8063062F38F13ADF83D
:10CE600006300C9B08330B939DF80430C3F3C203C8
:10CE7000DBB20F930B995C4802F0A5FA1790179B51
:10CE8000002B00F0D380179802F02EFB01A9169B0F
:10CE90000822179802F0E4FB169B08331693049BB4
:10CEA000DA43109B134001339B000A930C9A0A9BB0
:10CEB0009A4242D90A9B002B08D0049A109B134037
:10CEC00002339B00464A1344043300E0474B089367
:10CED0000A9B002B02D00A9BDBB201E00C9BDBB269
:10CEE0008DF81F300A9B002B01D0404B00E000233F
:10CEF00006930A9B002B06D00C9BDAB20A9BDBB28E
:10CF0000D31ADBB200E000238DF817309DF81F2004
:10CF1000169B0899179802F0A3FB9DF81F30169AEC
:10CF200013441693069B002B16D09DF81720169BD2
:10CF30000699179802F094FB0EE0049A109B134098
:10CF400002339B00264A134404330993169B0C9A20
:10CF50000999179802F084FB0D9B03339A08049BF0
:10CF60001344049362E09DF8043003F00303DBB242
:10CF7000012B5BD1BDF80430C3F38313DBB2062B66
:10CF800028BF0623DAB2BDF8043062F38913ADF886
:10CF90000430BDF80430C3F38313DBB202330E93C5
:10CFA0009DF80430C3F3C203DBB20F930E9B9B00CA
:10CFB00019460D4802F007FA1790179B002B35D041
:10CFC000179802F091FA01A9169B0822179802F00F
:10CFD00047FB169B08331693002315931DE000BFF3
:10CFE00048280020142600209C51020054280020CC
:10CFF000049B5A1C0492109A134002339B003F4A30
:10D000001344191D169B0422179802F029FB169B46
:10D0100004331693159B01331593BDF80430C3F305
:10D020008313DBB21A46159B9342E1D3179B002B67
:10D0300040D0324BD3F810341493304BD3F818341B
:10D04000002B1BD0179802F05EFA4DE000238DF8FC
:10D050004F301498FFF74CFB0346002B02D00123FE
:10D060008DF84F309DF84F30002B03D0179914984E
:10D07000FFF7FAFA149BDB681B681493149B002BD0
:10D08000E4D1179802F03FFA00238DF803300DF138
:10D090000303184600F070FF184BD3F81834002B28
:10D0A00002D1049B154A93609DF80330184600F0A6
:10D0B00079FF19E0114BD3F81034129306E012985F
:10D0C000FFF7ECFA129BDB681B681293129B002B94
:10D0D000F5D10B4A0B4BD31ADB081B0443F00203B8
:10D0E00009491846FFF7E0FDFFF72CFE034683F0E1
:10D0F0000103DBB2184619B05DF804FB4828002094
:10D10000D8510200B05102005853020000B585B05A
:10D110000023039323E0164BD3F81034029301232A
:10D120008DF807300FE00298FFF7D1FA03461A4650
:10D13000039B934203D100238DF8073006E0029B46
:10D14000DB681B680293029B002BECD19DF8073033
:10D15000002B01D0039B07E0039B01330393039B48
:10D16000092BD8DD4FF0FF33184605B05DF804FBFE
:10D170004828002000B585B001900B468DF803309B
:10D18000FFF7C4FF0390039BB3F1FF3F01D1039B63
:10D1900022E0039BDBB219460198FFF78BFA104B94
:10D1A000D3F81034002B08D10D4A019BC2F810347B
:10D1B000019BDB6800221A600DE0094BD3F81034A4
:10D1C000DA68019BDB6812681A60054BD3F81034EB
:10D1D000DB68019A1A60039B184605B05DF804FBF2
:10D1E0004828002000B583B00C4BD3F810340193CD
:10D1F0000A4B01221A7009E00198FFF770FA0198B2
:10D20000FFF740FA019BDB681B680193019B002B31
:10D21000F2D100BF00BF03B05DF804FB4828002036
:10D2200082B00190009100BF02B0704710B584B089
:10D2300003900291039BDB88002B0AD0039BDB88C1
:10D240001A461F4B009313461E4A1F49029801F0CD
:10D2500003FD039B1B7A052B2ED0039B5B7A002BCF
:10D2600012D0039B9B881A46039B1B7A19461046D3
:10D27000FFF7CAFA03461A46144B53F822301A46EF
:10D280001349029801F0E8FC039B1B6819460298B9
:10D29000FFF7C6FF039B1B7A1A460E4B53F822403A
:10D2A000039B9B8800211846FFF78EFA034622460F
:10D2B0000949029801F0D0FC00BF04B010BD00BFC6
:10D2C0008C5302009C530200D45302002C260020F1
:10D2D000EC53020018260020F053020000B585B080
:10D2E0000390029113468DF80730039B1B7A052BA0
:10D2F0000FD0039B5B7A002B06D00D4B1B681A46A0
:10D300000C49029801F0A8FC0B49029801F0A4FC1A
:10D3100007E09DF80730002B03D00749029801F081
:10D320009BFC029801F076FC00BF05B05DF804FBA1
:10D330002C260020EC530200FC53020030B58BB0C9
:10D3400007900691059204930E9B1B7B8DF8273066
:10D350000E9B00221A730E990498FFF767FF059B36
:10D36000062B7FD801A252F823F000BF89D3010019
:10D3700093D30100A3D30100B7D30100D5D301009B
:10D38000FDD301002DD4010007990E9801F064FC33
:10D3900069E0069B1B681A4607990E9801F05CFC31
:10D3A00061E0069B1A68069B04331B6807990E9878
:10D3B00001F052FC57E0069B1A68069B043319687B
:10D3C000069B08331B6800930B4607990E9801F0E3
:10D3D00043FC48E0069B1968069B04331868069BCB
:10D3E00008331B68069A0C321268019200930346B8
:10D3F0000A4607990E9801F02FFC34E0069B186846
:10D40000069B04331C68069B08331B68069A0C3283
:10D41000126806991031096802910192009323461F
:10D42000024607990E9801F017FC1CE0069B1C6849
:10D43000069B04331D68069B08331B68069A0C3252
:10D440001268069910310968069814300068039034
:10D450000291019200932B46224607990E9801F003
:10D46000FBFB00E000BF00220E990498FFF736FF97
:10D470000E9B9DF827201A7300BF0BB030BD00BF74
:10D4800000B587B00390029101920093029B082B94
:10D4900060D8009B1B7B8DF81330009B00221A7311
:10D4A00000990198FFF7C2FE0023059314E0059A46
:10D4B000029B9A4209D2039A059B13441B781A4691
:10D4C0002649009801F0C8FB03E02549009801F0C7
:10D4D000C3FB059B01330593059B072BE7D9214926
:10D4E000009801F0B9FB0023059326E0059A029B02
:10D4F0009A421BD2039A059B13441B788DF8123075
:10D500009DF812307E2B0AD89DF81230184607F08D
:10D510007DFD0346002B02D09DF8123000E02E2343
:10D520001A461149009801F097FB03E00F49009853
:10D5300001F092FB059B01330593059B072BD5D981
:10D54000012200990198FFF7C9FE009B9DF8132066
:10D550001A7300E000BF07B05DF804FB005402003E
:10D56000085402000C54020010540200145402002B
:10D5700086B003900291019201238DF817309DF837
:10D580001730204A039B13601E4A029B53601D4ABA
:10D59000019B9360039B44F20102934212D0039BD0
:10D5A00044F20202934220D1019B164AD360154BEC
:10D5B000DB681B68134A9361124BDB685B68114A96
:10D5C000D36112E0019B0F4A13610E4B1B699B68EC
:10D5D0000C4A53610B4B1B691B680A4A9361094B48
:10D5E0001B695B68074AD36100BF72B600BF00BF0A
:10D5F0009DF81730DBB2002BFAD162B600BF00BF36
:10D6000006B07047682C002000B583B002900091EE
:10D61000019244F2010071466A4600F003F803B03B
:10D6200000BD00BF30B58BB007900691059272B671
:10D6300000BFFFF7D7FD00BFFFF792FB0346002BAB
:10D64000FAD1079B44F2020293422FD0079B44F287
:10D650000202934269D8079B44F20102934237D0F9
:10D66000079B44F2010293425FD8079B012B05D030
:10D67000079B41F2010293420CD056E0394A3A4BE3
:10D68000D31ADB081B0443F0010338491846FFF79F
:10D690000BFB57E0334A344BD31ADB081B0443F02F
:10D6A000010333491846FFF7FFFA4BE0059B099346
:10D6B0002C4A2D4BD31ADB081B0443F00100099BB5
:10D6C0005B681A46099B1B682A49FFF70CFB39E087
:10D6D000059B0893234A244BD31ADB081B0443F011
:10D6E0000104089B9D68089B9B68184602F0B6F9E8
:10D6F00003461846089B5B681946089B1B68069AF8
:10D7000002920193009103462A461B492046FFF7E7
:10D71000FEFA144A144BD31ADB081B0443F001032E
:10D7200016491846FFF7C0FA0CE00E4A0E4BD31A02
:10D73000DB081B0443F00103069A11491846FFF762
:10D74000C1FA00BF0F4B1B6803F00103002B00D090
:10D7500000BE059A06990798FFF70AFF00BF0BB0B5
:10D7600030BD00BFD8510200B05102008854020001
:10D77000A8540200CC540200E854020010550200E4
:10D7800024550200F0ED00E0F0B583B0124801F03E
:10D7900004F8034618464FF00001104BD3E900236C
:10D7A000861841EB0307CDE900670D4BD3E9002351
:10D7B000DDE90001994208BF904207D2DDE900236C
:10D7C00012F1807443F10005CDE90045DDE9002345
:10D7D0001046194603B0F0BD50260020902C0020C2
:10D7E000982C002088B001900091019B0793009B2A
:10D7F0000693079BD3E90223CDE90423069BD3E9D3
:10D800000223CDE90223DDE90423DDE90201994287
:10D8100008BF90422CBF01230023DBB2184608B09A
:10D820007047000030B585B00190019B5B69002B0B
:10D8300003D12B49A22000F0D9FF00238DF80F302F
:10D84000284B1B78002B45D0019B002B42D0019B1D
:10D850001B7FDBB2002B3DD0FFF796FF019BD3E986
:10D860000223994208BF90422CD3019B1B69002BD5
:10D8700002D1019B00221A77019B5B69019A926990
:10D8800010469847019B1B69002B23D0019B1B7FEF
:10D89000DBB2002B1ED0019BD3E90201019B1B6967
:10D8A0001A464FF00003841841EB0305019BC3E9BE
:10D8B0000245019B19460C4802F02AF801238DF815
:10D8C0000F3007E0019B1946074802F021F80123B9
:10D8D0008DF80F309DF80F30184605B030BD00BFF1
:10D8E000485502008C2C0020AC550200F0B589B0E0
:10D8F000019000910D230793009B00221A70019B59
:10D90000D3E90245FFF740FF02460B46A61A65EB36
:10D910000307CDE90467DDE90423012A73F100035D
:10D920001BDB049BB3F5D40F05D300F0A7FA024626
:10D93000154B134403E0019BD3E9022313460393E1
:10D940004FF41603039A0021104800F019FE0790C7
:10D95000079B002B05D1012313E000210B4800F0A9
:10D96000E7FE079B0D2B07D10198FFF75BFF0346EE
:10D970001A46009B1A7003E00549F52000F036FFB7
:10D980000023184609B0F0BDFFFF690050260020B3
:10D990004855020000B583B0044801F0F3FF019040
:10D9A000019B184603B05DF804FB00BFAC550200B4
:10D9B00000B583B0044802F007F80190019B1846B7
:10D9C00003B05DF804FB00BFAC55020000B583B0A6
:10D9D000FFF7E0FF0190019B002B02D0019B00228A
:10D9E0001A77019B002BF3D100BF00BF03B05DF895
:10D9F00004FB0000054BD3E9002312F1807043F1D2
:10DA00000001024BC3E9000100BF7047902C0020C9
:10DA100010B582B00190124B1B68002B1DD00198ED
:10DA200000F0BBFE04460021019800F0A7FE03466B
:10DA30001946204600F016FA0346B3F5160F04D334
:10DA400008494FF4957000F0D1FE054B1B6818464D
:10DA5000FFF7E8FE024B00221A6000BF02B010BDC3
:10DA6000882C00204855020000B583B00190FFF7D4
:10DA70008BFE02460B460349C1E9002300BF03B0F9
:10DA80005DF804FB982C002000B585B00190FFF7ED
:10DA90008FFF039000238DF80B30039B002B48D0A1
:10DAA0002B4B1B68002B03D101238DF80B3019E0A1
:10DAB000039BD3E90201264B1B68D3E90223994259
:10DAC00008BF90420ED201238DF80B30204B1B680B
:10DAD0001B7FDBB2002B05D01D4B1B6819461D4870
:10DAE00001F016FF9DF80B30002B2AD0FFF752FFF4
:10DAF00003900DF10A0319460398FFF7F7FE03465A
:10DB0000002B12D0124B1B68002B02D1019800F0A1
:10DB100043FC0F4A039B13609DF80A3083F0010316
:10DB2000DBB2002BB3D000BF0EE0094B00221A601D
:10DB3000ADE7074B1B68002B05D1019800F042FCB4
:10DB400001E000BF00E000BF00BF05B05DF804FBCE
:10DB5000882C0020AC55020000B587B001902C4AFB
:10DB600003AB1946104602F096F8059048E0059B75
:10DB70001B78022B2ED0022B32DC002B02D0012B83
:10DB800014D02DE0059B5B681B7FDBB283F00103A3
:10DB9000DBB2002B26D0059B5B6801221A77059B20
:10DBA0005B6819461B4801F0B3FE1BE0059B5A68F1
:10DBB000194B1B689A4203D1174B00221A6012E0DE
:10DBC000059B5B681946134801F012FF03468DF868
:10DBD000133008E0FFF7FAFE104B01221A7002E042
:10DBE00000BF00E000BF0A4A03AB1946104602F02E
:10DBF0006BF8074A03AB1946104602F04CF8059043
:10DC0000059B002BB3D100BF00BF07B05DF804FB3C
:10DC1000F82C0020AC550200882C00208C2C002011
:10DC200000B583B00190019800F075FD0346002B0C
:10DC300001D0FFF7DFFE0021019800F08AFD0346C6
:10DC4000002B02D00198FFF7E3FE0121019800F0BC
:10DC500080FD0346002B02D00198FFF705FF0198D5
:10DC6000FFF77AFF0198FFF70FFF00BF03B05DF8E1
:10DC700004FB000008B5024800F09CFD00BF08BD91
:10DC80005026002000B585B0034600918DF807307E
:10DC9000114A02AB1946104601F0D0FF0390039BD6
:10DCA000002B13D0039B9DF807201A70039B009A4A
:10DCB0005A60094A02AB1946104601F0D8FF0346E4
:10DCC000002B01D0FFF7D6FF002300E00423184605
:10DCD00005B05DF804FB00BFF82C002000B583B050
:10DCE0000023ADF8003006238DF8023014480823D5
:10DCF0005822144901F06FFF0190019B002B01D0C5
:10DD0000019B19E06B46104A1946104800F0C6FA0C
:10DD10000190019B002B01D0019B0DE001210B48DC
:10DD200000F0E8FC01230A4A0121084800F060FBEA
:10DD3000084B01221A70019B184603B05DF804FBE2
:10DD4000F82C0020A02C002021DC0100502600200F
:10DD5000FFFF7F008C2C002000B587B003900B469E
:10DD600001928DF80B30039B002B04D1134940F234
:10DD70002E2000F03BFD019B002B04D10F4940F207
:10DD80002F2000F033FD019B002B01D1072310E071
:10DD9000039B1B680593059B019A5A619DF80B3004
:10DDA000012B0CBF01230023DBB21A46059B1A612D
:10DDB0000023184607B05DF804FB00BF4855020079
:10DDC00030B587B0039002910192039B002B04D1E0
:10DDD000154940F23E2000F009FD039B0593059B89
:10DDE0001B7FDBB2002B01D000231AE0059B019AB8
:10DDF0009A61FFF7C9FC029B1A464FF00003841892
:10DE000041EB0305059BC3E90245059B1B69002BFC
:10DE100002D0059B029A1A6105990020FFF732FF94
:10DE20000346184607B030BD4855020000B585B01E
:10DE30000190019B002B04D109494FF4157000F0AB
:10DE4000D5FC019B0393039B00221A7703990120C1
:10DE5000FFF718FF0346184605B05DF804FB00BF46
:10DE60004855020082B001900091019A009BD31A9C
:10DE700023F07F43184602B07047000008B50348FE
:10DE800000F08BFC0346184608BD00BF502600205A
:10DE900082B0EFF310830093009B019372B600BF32
:10DEA000019B184602B0704762B600BF00BF7047C2
:10DEB00000B585B00190FFF7EBFF0390164B9B6810
:10DEC000002B1BD1144B01229A60144BD3F88020F5
:10DED000134B1340104A1360104B114AC3F88020B3
:10DEE0000E4BD3F884300C4A53600C4B4FF0FF328A
:10DEF000C3F88420019B00221A7002E0019B0122DA
:10DF00001A70039B002B01D1FFF7CEFF00231846A8
:10DF100005B05DF804FB00BF0C2D002000E100E01F
:10DF2000FC06FFBD00B585B003468DF80730104BE9
:10DF30009B68002B16D09DF80730002B12D1FFF7FD
:10DF4000A7FF03900B4A0A4B1B681360094A084B52
:10DF50005B685360064B00229A60039B002B01D143
:10DF6000FFF7A2FF0023184605B05DF804FB00BFD1
:10DF70000C2D002000E100E000B583B0019000F01E
:10DF80002BF80346012B03D00549432000F02EFC5B
:10DF90000198FFF78DFF00BF03B05DF804FB00BFE1
:10DFA000B855020000B583B003468DF8073000F085
:10DFB00013F80346012B03D00649512000F016FC4C
:10DFC0009DF807301846FFF7ADFF00BF03B05DF8BE
:10DFD00004FB00BFB855020084B0EFF30583019342
:10DFE000019BC3F308030393039B002B0DD1EFF3B5
:10DFF00014830093009B0293029B03F00103002B08
:10E000000CBF01230023DBB200E00123184604B05B
:10E010007047000082B003468DF807309DF9073045
:10E02000002B0CDB9DF8073003F01F0205499DF91A
:10E0300007305B09012000FA02F241F8232000BFFB
:10E0400002B0704700E100E082B003468DF807306F
:10E050009DF90730002B0DDB9DF8073003F01F0200
:10E0600006499DF907305B09012000FA02F24033AE
:10E0700041F8232000BF02B0704700BF00E100E07C
:10E0800082B0034600918DF807309DF90730002BD0
:10E090000ADB009BDAB20C499DF907305201D2B27B
:10E0A0000B4483F800230BE0009BDAB207499DF88C
:10E0B000073003F00F03043B5201D2B20B441A762F
:10E0C00000BF02B0704700BF00E100E000ED00E0DB
:10E0D00000B583B003460A468DF8073013468DF825
:10E0E00006309DF80630012B03D99DF80630032B2E
:10E0F0000BD99DF80630042B03D99DF80630072B69
:10E1000003D908496B2000F071FB9DF806209DF9AA
:10E11000073011461846FFF7B3FF00BF03B05DF8A4
:10E1200004FB00BF2056020000B583B003468DF803
:10E1300007309DF907301846FFF76CFF00BF03B0AA
:10E140005DF804FB00B585B00190019B002B0AD05F
:10E15000074B43F001030393019B9B010293039B35
:10E160000298984700E000BF05B05DF804FB00BFCF
:10E170002057020084B0039002910192039B029AFF
:10E1800002F5A872019943F8221000BF04B070474D
:10E1900082B001900091019B009A02F5A87253F899
:10E1A0002230184602B0704782B001900091019B66
:10E1B000009AC3F8042300BF02B0704782B00190F8
:10E1C0000091019B009AC3F8082300BF02B070477A
:10E1D00082B001900B46ADF80230BDF80230019AD2
:10E1E00013441B68184602B0704784B001900B4678
:10E1F000ADF80230BDF80230019A134400221A60D3
:10E20000BDF80230019A13441B680393039B00BFBF
:10E2100004B0704782B00190019BD3F804351846D2
:10E2200002B0704700B583B001900091009BB3F538
:10E23000805F04D306494FF4BE7000F0D7FA019B0B
:10E24000009AC3F8082500BF03B05DF804FB00BFC7
:10E250005056020082B001900B468DF803309DF8B5
:10E260000320019B13441A460123136000BF02B030
:10E27000704782B001900091019B009AC3F844233B
:10E2800000BF02B0704782B001900091019B009ADC
:10E29000C3F8482300BF02B07047000000B587B044
:10E2A000039002910192039B002B03D13349552027
:10E2B00000F09CFA029B002B03D13049562000F05D
:10E2C00095FA019B002B03D12C49572000F08EFAC0
:10E2D000039B5B7919462A4A019B42F82130039B34
:10E2E0005B79284ADB0013441B79002B0ED00823EE
:10E2F0000593254A254BD31ADB081B0443F0020380
:10E3000023491846FEF7D0FC059B32E0039B1A68B0
:10E31000029B1B8819461046FFF784FF039B93F965
:10E320000420029B9B7819461046FFF7D1FE039B01
:10E3300093F904301846FFF7F7FE039B5B79114A07
:10E34000DB00134401221A71039B5B7919460D4AC5
:10E35000039B42F83130002305930B4A0B4BD31A31
:10E36000DB081B0443F003030A491846FEF79CFC34
:10E37000059B184607B05DF804FB00BF80560200FD
:10E38000182D00201C2D0020E8510200B051020081
:10E39000D4560200F856020000B583B00190019BEC
:10E3A000002B03D10649872000F020FA019B1B684F
:10E3B00000211846FFF74EFF00BF03B05DF804FBD5
:10E3C0008056020000B583B00190019B002B03D161
:10E3D00006498D2000F00AFA019B1B6804211846AB
:10E3E000FFF738FF00BF03B05DF804FB8056020062
:10E3F00000B587B00390029101928DF80330039B22
:10E40000002B03D12149962000F0F0F94FF480321F
:10E41000029B02FA03F30593029B50339BB29B00CD
:10E42000ADF81230019B23F07F430193039B1B68DF
:10E4300005991846FFF7C2FE039B1B68059918460D
:10E44000FFF721FF039B1B68BDF8122011461846F9
:10E45000FFF7CBFE039B1B68019A02991846FFF752
:10E4600089FE039B1B6805991846FFF702FF9DF87C
:10E470000330002B05D0039B1B6805991846FFF756
:10E4800093FE00BF07B05DF804FB00BF805602009A
:10E4900000B585B00390029113468DF80730039BB9
:10E4A000002B03D10B49A92000F0A0F9039B1B68A6
:10E4B00002991846FFF7DDFE9DF80730002B05D0C6
:10E4C000039B1B6802991846FFF76EFE00BF05B05C
:10E4D0005DF804FB8056020000B583B00190009106
:10E4E000019B002B03D10A49B32000F07FF9019B67
:10E4F0001B6800991846FFF7C6FE019B1B68009930
:10E500001846FFF75BFE00BF03B05DF804FB00BFD9
:10E510008056020000B583B001900B46ADF8023082
:10E52000019B002B03D10F49BA2000F05FF9019B3A
:10E530001B68BDF8022011461846FFF749FE034646
:10E54000002B09D0019B1B68BDF80220114618461C
:10E55000FFF74BFE012300E00023184603B05DF8EF
:10E5600004FB00BF8056020082B001900091019A26
:10E57000009BD31A23F07F43184602B07047000077
:10E5800000B58BB00390029101920093039B002B86
:10E5900003D15749CD2000F029F94FF48032029B76
:10E5A00002FA03F30993029B50339BB29B00ADF830
:10E5B0002230019B23F07F43019309990398FFF7D1
:10E5C0008BFF039B1B681846FFF724FE0790039BF5
:10E5D0001B6802991846FFF7DBFD0690039B1B683A
:10E5E000079A02991846FFF7C5FD039B1B68BDF803
:10E5F000222011461846FFF7F8FD07990698FFF705
:10E60000B3FF0346012B0AD11020FFF79BFD039BAC
:10E610001B68BDF8222011461846FFF7E6FD039B54
:10E620001B681846FFF7F6FD079007990198FFF75A
:10E630009BFF0590039B1B6809991846FFF719FE7D
:10E64000059B012B15D1039B1868019B01331A46CA
:10E650000299FFF78FFD1020FFF774FD039B1B68E5
:10E660001846FFF7D7FD0246079B934235D00D238E
:10E6700039E0039B1B68019A02991846FFF77AFD5F
:10E68000039B1B681846FFF7C5FD0790019B013BE4
:10E6900007991846FFF768FF0590009BC3F1FF1329
:10E6A00003F57F43059A9A4201D90D231BE0059B90
:10E6B000002B12D1039B1868019B01331A46029963
:10E6C000FFF758FD039B1B681846FFF7A3FD0246A2
:10E6D000079B934201D00D2305E00122099903987D
:10E6E000FFF7D6FE002318460BB05DF804FB00BF11
:10E6F0008056020000B583B001900B468DF80330C0
:10E700009DF803301A4602210198FFF7C1FE00BFB1
:10E7100003B05DF804FB00B583B001904FF4827143
:10E720000198FFF7F7FE0346184603B05DF804FBB7
:10E7300000B583B0019000914FF48032009B02FA43
:10E7400003F319460198FFF7C7FE00BF03B05DF859
:10E7500004FB00B585B001900091009B50339BB243
:10E760009B00ADF80E30BDF80E3019460198FFF74A
:10E77000D1FE0346184605B05DF804FB00B583B032
:10E7800001900091019B1B6800991846FFF700FD5E
:10E790000346184603B05DF804FB00B583B0019052
:10E7A000019B1B681846FFF735FD0346184603B06A
:10E7B0005DF804FB00B583B00190019B93F9043030
:10E7C0001846FFF741FC00BF03B05DF804FB0000F2
:10E7D00008B5044B1B68044A12681046984700BFEE
:10E7E00008BD00BF182D00201C2D002000B585B0ED
:10E7F00003460091ADF80630BDF806300293009B49
:10E80000039302AB1A46002144F20200FEF70AFF0E
:10E8100000BF05B05DF804FB00B585B00190009124
:10E82000009B5B099B00019A1A44009B03F01F03A5
:10E83000012101FA03F31946104600F04DF8039048
:10E8400000BF05B05DF804FB00B585B001900091F4
:10E85000009B5B099B00019A1A44009B03F01F0375
:10E86000012101FA03F3DB431946104600F064F876
:10E87000039000BF05B05DF804FB82B001900091E9
:10E88000009B5B099B00019A13441A68009B03F0EC
:10E890001F0322FA03F303F00103002B14BF01232B
:10E8A0000023DBB2184602B0704710B487B0019065
:10E8B0000091019B009A53E8004F104643E8000185
:10E8C00091F0000FF7D1059404900391059B184631
:10E8D00007B05DF8044B704710B487B00190009109
:10E8E000019B009A53E8004F44EA020043E800010C
:10E8F00091F0000FF6D1059404900391049B184603
:10E9000007B05DF8044B704710B487B001900091D8
:10E91000019B009A53E8004F04EA020043E800011B
:10E9200091F0000FF6D1059404900391059B1846D1
:10E9300007B05DF8044B704710B487B001900091A8
:10E94000019B009A53E8004F04EA020043E80001EB
:10E9500091F0000FF6D1059404900391049B1846A2
:10E9600007B05DF8044B704710B487B00190009178
:10E97000019B009A53E8004F04EB020043E80001BA
:10E9800091F0000FF6D1059404900391049B184672
:10E9900007B05DF8044B704710B487B00190009148
:10E9A000019B009A53E8004FA4EB020043E80001EA
:10E9B00091F0000FF6D1059404900391049B184642
:10E9C00007B05DF8044B704700B583B0019001219A
:10E9D0000198FFF781FF0346184603B05DF804FB7A
:10E9E00000B583B0019000210198FFF78DFF034629
:10E9F000184603B05DF804FB00B583B001900B46E8
:10EA00008DF80330019B002B03D10849E820FFF764
:10EA1000EDFE019BDA689DF803300199098A01FB3C
:10EA200003F31344184603B05DF804FB28570200B3
:10EA300000B583B001900091019B002B03D10849E0
:10EA4000F520FFF7D3FE009B019AD2689B1A019A2A
:10EA5000128AB3FBF2F3DBB2184603B05DF804FB95
:10EA60002857020000B585B00190019B002B01D111
:10EA70000E234CE0019B1B68002B03D12649FF208D
:10EA8000FFF7B4FE019B5B68002B04D122494FF4D1
:10EA90008070FFF7ABFE019B9B68002B04D11E49E1
:10EAA00040F20110FFF7A2FE019BDB68002B04D1AE
:10EAB00019494FF48170FFF799FE019B1B8A002BC7
:10EAC00004D1154940F20310FFF790FE019B9A68AC
:10EAD000019B5B68D31A8DF80F30019B1B68019A6C
:10EAE00052681A6007E0019B1A681368591C11608C
:10EAF0009DF80F201A709DF80F305A1E8DF80F20C8
:10EB0000002BF0D1019B1B6800221A7100231846CC
:10EB100005B05DF804FB00BF2857020000B585B0C2
:10EB20000190019B002B04D11F494FF49270FFF715
:10EB30005DFE0023039300238DF80A300DF10A03D4
:10EB40001846FFF719FA019B1B681A68019B5B685E
:10EB50009A421FD9019B1B681A68013A1A601B6808
:10EB60001B7819460198FFF747FF0390019B9A68AD
:10EB7000019B1B681B68D31A8DF80B30019B1B6827
:10EB80001B799DF80B209A4204D9019B1B689DF8C4
:10EB90000B201A719DF80A301846FFF703FA039B01
:10EBA000184605B05DF804FB2857020010B584B084
:10EBB00001900091019B002B04D1154940F24710B0
:10EBC000FFF714FE009B002B04D111494FF4A470F1
:10EBD000FFF70CFE009B039300238DF80B300DF123
:10EBE0000B031846FFF7C8F9019B1B681C68621CE1
:10EBF0001A6003990198FFF71BFF034623709DF8E5
:10EC00000B301846FFF7CEF900BF04B010BD00BFAF
:10EC10002857020000B583B00190019B002B03D15F
:10EC20000C493120FFF7E2FD019B9B68002B0CD0C3
:10EC3000019B5B69019A1069019A1168019A9268B7
:10EC40009847019B00229A6000E000BF03B05DF886
:10EC500004FB00BF8C5702000EB400B584B00190D5
:10EC6000019B002B03D118494220FFF7BFFD019BF8
:10EC70005B69002B03D114494320FFF7B7FD019BCB
:10EC80001B68002B03D110494420FFF7AFFD019B07
:10EC90005B68002B03D10C494520FFF7A7FD059BBE
:10ECA000002B0AD00023039306AB039303AB1A4651
:10ECB0000599019800F0B8F900E000BF04B05DF8D4
:10ECC00004EB03B0704700BF8C57020000B583B05F
:10ECD00001900B468DF803309DF803300A2B03D1C9
:10ECE0000D210198FFF7F2FF019B1A68019B9B68B9
:10ECF000581C0199886013449DF803201A70019BE9
:10ED00009A68019B5B689A4202D30198FFF782FFE1
:10ED100000BF03B05DF804FB00B587B0039002911B
:10ED20000192009300230593009B03F00103002B45
:10ED300024D00BE0029B01330293059B0133059322
:10ED40009DF8133019460398FFF7C0FF029B1B780C
:10ED50008DF813309DF81330002BEBD106E0019BAA
:10ED6000013B019320210398FFF7B0FF019A059B17
:10ED70009A422ED9019B002BF1D12AE0029B002B55
:10ED80000BD0029806F0C5F9059006E0019B013B07
:10ED9000019320210398FFF799FF019A059B9A425E
:10EDA0000FD9019B002BF1D10BE0029B01330293A1
:10EDB000059B013305939DF8133019460398FFF71F
:10EDC00085FF029B1B788DF813309DF81330002BC4
:10EDD000EBD100BF07B05DF804FB000000B589B0BF
:10EDE0000390029101920093029B079301230693E3
:10EDF00007E0079A019BB2FBF3F30793069B0133ED
:10EE00000693079A019B9A42F3D2009A069B9A4274
:10EE100001D9009B06930B9B03F00103002B22D129
:10EE20000A9B002B1FD00B9B03F00203002B06D084
:10EE3000009B002B03D130238DF8173002E02023F4
:10EE40008DF8173008E00A9B013B0A939DF81730B4
:10EE500019460398FFF73AFF0A9B002B03D0069A46
:10EE60000A9B9A42EFD301230793009B012B03D9FE
:10EE7000009B013B009309E0029A079BB2FBF3F36E
:10EE80000493049A019B9A4200D205E0079B019AE1
:10EE900002FB03F30793E8E7029A079BB2FBF3F345
:10EEA0000493049B079A02FB03F3029AD31A02937A
:10EEB000154A049B13441B7819460398FFF706FF75
:10EEC000079A019BB2FBF3F30793079B002BE3D157
:10EED0000B9B03F00103002B11D00A9B002B0ED0DB
:10EEE00006E00A9B013B0A9320210398FFF7EEFE00
:10EEF0000A9B002B03D0069A0A9B9A42F1D300BFCB
:10EF000009B05DF804FB00BF4458020000B589B0A9
:10EF10000590049103920293049B002BB8BF5B42BF
:10EF200006930123079307E0039B069A92FBF3F3F2
:10EF30000693079B01330793039B069A9A42F3DAE1
:10EF4000029A079B9A4201D9029B07930A9B002BC6
:10EF50000AD0049B002B04DB0B9B03F00403002B63
:10EF600002D00A9B013B0A930B9B03F00203002B88
:10EF700002D0029B002B16D00B9B03F00103002B49
:10EF800011D10A9B002B0ED006E00A9B013B0A938D
:10EF900020210598FFF79AFE0A9B002B03D0079AC1
:10EFA0000A9B9A42F1D3049B002B07DA049B5B4235
:10EFB00004932D210598FFF789FE08E00B9B03F0D1
:10EFC0000403002B03D02B210598FFF77FFE0B9B3A
:10EFD00003F00203002B19D00B9B03F00103002B5D
:10EFE00014D1029B002B11D10A9B002B0ED006E0FE
:10EFF0000A9B013B0A9330210598FFF767FE0A9BA5
:10F00000002B03D0079A0A9B9A42F1D304990B9BD9
:10F0100001930A9B0093029B039A0598FFF7DEFE7B
:10F0200000BF09B05DF804FB00B58FB005900491F6
:10F030000392059B002B04D1B64940F25220FFF702
:10F04000D5FB059B5B69002B04D1B2494FF41570C9
:10F05000FFF7CCFB059B1B68002B04D1AD4940F2A8
:10F060005520FFF7C3FB059B5B68002B04D1A94922
:10F0700040F25620FFF7BAFB049B002B00F093816F
:10F08000049B1B788DF83730049B013304939DF863
:10F090003730002B00F07E819DF83730252B40F073
:10F0A0006D8100230A9301230C93049B1B788DF838
:10F0B00037309DF83730302B0DD0302B1BDC2B2B0D
:10F0C00011D02D2B17D10A9B43F001030A93049B07
:10F0D0000133049312E00A9B43F002030A93049B5A
:10F0E000013304930AE00A9B43F004030A93049B50
:10F0F0000133049302E000230C9300BF0C9B002B10
:10F10000D3D1002309939DF837302A2B0CD1039BD0
:10F110001B68191D039A11601B68099A134409930F
:10F12000049B013304931AE0049B1B788DF837305D
:10F130009DF837302F2B12D99DF83730392B0ED848
:10F14000049B01330493099A13469B0013445B000C
:10F150001A469DF837301344303B0993D3E7002318
:10F160000B93049B1B788DF837309DF837302E2B8E
:10F170001DD1049B01330493049B1B788DF8373019
:10F180009DF837302F2B12D99DF83730392B0ED8F8
:10F19000049B013304930B9A13469B0013445B00BA
:10F1A0001A469DF837301344303B0B93E4E7049B39
:10F1B0001B788DF837309DF837306C2B03D09DF8D5
:10F1C0003730682B07D1049B01330493049B1B78D1
:10F1D0008DF83730EFE79DF83730252B00F0C480ED
:10F1E000252BC0F2C680782B00F3C380582BC0F2C9
:10F1F000C080583B202B00F2BC8001A252F823F0C3
:10F20000EFF2010073F3010073F3010073F30100E7
:10F2100073F3010073F3010073F3010073F3010052
:10F2200073F3010073F3010073F3010085F2010031
:10F23000A7F2010073F3010073F3010073F30100FF
:10F2400073F30100A7F2010073F3010073F30100EF
:10F2500073F3010073F3010073F3010073F3010012
:10F2600035F3010073F3010073F3010019F301009A
:10F2700073F30100CBF2010073F3010073F301009B
:10F28000EFF20100039B1B68191D039A11601B68B4
:10F290000C930C9B8DF81F309DF81F301946059874
:10F2A000FFF714FD66E0039B1B68191D039A1160AC
:10F2B0001B680C930A9B0193099B00930B9B0A22EA
:10F2C0000C990598FFF722FE54E0039B1B68191D5B
:10F2D000039A11601B680C930C990A9B0193099B7C
:10F2E00000930B9B0A220598FFF778FD42E0039BF1
:10F2F0001B68191D039A11601B680C930C990A9BDB
:10F300000193099B00930B9B10220598FFF766FD64
:10F3100030E000BFE4570200039B1B68191D039AED
:10F3200011601B6808930A9B099A08990598FFF7D2
:10F33000F3FC1FE0039B1B68191D039A11601B68F7
:10F340000C9330210598FFF7C1FC78210598FFF751
:10F35000BDFC0C990023019308230093082310227D
:10F360000598FFF73BFD05E025210598FFF7AEFC6A
:10F3700000E000BF049B0133049305E09DF83730A3
:10F3800019460598FFF7A2FC049B1B78002B7FF41D
:10F3900077AE00E000BF059B1B7B002B04D00598D7
:10F3A000FFF738FC00E000BF0FB05DF804FB00BFC2
:10F3B00000B583B001900198FFF754FB034618464F
:10F3C00003B05DF804FB00B58BB001900091019B88
:10F3D0001B8A043B0793009A079B1344DA1C079B84
:10F3E000B2FBF3F38DF81B300198FFF797FB059004
:10F3F000059B002B01D1002338E0059B00221A71E8
:10F40000059B01225A71079B9AB2059BDA80059BE6
:10F4100009939DF81B30013B0493099B019A1A60E4
:10F42000002308931DE00198FFF778FB0390039BEE
:10F43000002B0ED0059B5B790133DAB2059B5A7124
:10F44000099B039A1A60039B019A1A60039B099314
:10F4500004E0059800F00EF8002307E0089B013354
:10F460000893089A049B9A42DDD3059B18460BB07B
:10F470005DF804FB00B58BB00190019B0793079BDF
:10F480005B798DF81B30019B08939DF81B30013B85
:10F4900005930023099305E0089B1B680893099BCB
:10F4A00001330993099A059B9A42F5D3089B1B687F
:10F4B0000493019B0893002309930BE0089B1B68AE
:10F4C000039308990498FFF771FB039B0893099B2A
:10F4D000013309939DF81B30099A9A42EED300BF7D
:10F4E00000BF0BB05DF804FB00B585B00190019B37
:10F4F0000393039B043301211846FFF735FA00BF3D
:10F5000005B05DF804FB00B587B00190019B059341
:10F51000059B043301211846FFF73EFA0346039387
:10F5200003AB0493049B1B78002B02D10198FFF7D7
:10F53000A1FF00BF07B05DF804FB000000B591B06B
:10F540000390029101920093039B002B03D1434946
:10F55000B620FFF74BF9039B0993039B0F93099B7D
:10F56000DB881A46099B5B7903FB02F3043B089393
:10F57000009A089B9A4203D33849C420FFF736F912
:10F58000099BDB880793009B1A1D079BB2FBF3F3D3
:10F590000E93009B0433079AB3FBF2F2079901FB29
:10F5A00002F29B1A0D93019B1A68009B1344089A60
:10F5B0009A4203D2089A009BD31A01E0019B1B6870
:10F5C0000C93019B0C9A1A6005E00F9B1B680F932C
:10F5D0000E9B013B0E930E9B002BF6D100230B9349
:10F5E000079A0D9BD31A0A930A9A0C9B934228BF41
:10F5F00013460A932AE0029A0B9B134406930F9A30
:10F600000D9B1344043305939DF84830002B05D01F
:10F610000A9A0599069805F0FEFC04E00A9A0699F4
:10F62000059805F0F8FC00230D930F9B1B680F93C2
:10F630000C9A0A9BD31A0C930B9A0A9B13440B93B4
:10F64000079A0C9B934228BF13460A930C9B002BEE
:10F65000D1D100BF00BF11B05DF804FB54580200C7
:10F6600000B589B00590049103920293039B079320
:10F6700007AA00230093029B04990598FFF75EFFF9
:10F68000079B039A9A4203D00349F620FFF7AEF88E
:10F6900000BF09B05DF804FB5458020000B589B002
:10F6A0000590049103920293039B079307AA0123F9
:10F6B0000093029B04990598FFF740FF079B039A6C
:10F6C0009A4204D004494FF48070FFF78FF800BFCE
:10F6D00009B05DF804FB00BF5458020082B0034635
:10F6E0008DF807309DF90730002B0DDB9DF80730B2
:10F6F00003F01F0206499DF907305B09012000FA5B
:10F7000002F2603341F8232000BF02B0704700BF0F
:10F7100000E100E000B583B00190019B002B03D114
:10F7200006497220FFF762F8019B00221A60BFF3BE
:10F730005F8F00BF00BF03B05DF804FB0C590200EF
:10F7400041DF704700BF184600B585B000238DF833
:10F7500003300DF103031846FEF70EFCF1EE103AEC
:10F760000193019B0393039B23F09F030293029B4E
:10F77000E1EE103A00BFBFF35F8F00BF2620FFF716
:10F78000ADFF9DF803301846FEF70CFC039B03F019
:10F790000703002B03D004497D20FFF727F800BFA3
:10F7A00005B05DF804FB00BF5059020008B5064BD8
:10F7B00000221A700548FFF7ADFF0549054800F023
:10F7C0004BF80023184608BD282D0020242D0020CA
:10F7D000B85902002C2D002000B583B0FFF7B4FF0C
:10F7E00005F0D0F80346002B0ED0FFF7A9FF0190DB
:10F7F000019B002B0BD0019B022B08D006494FF434
:10F80000B070FEF7F3FF02E020BF40BF20BF00BF93
:10F8100003B05DF804FB00BF5059020082B00190B4
:10F82000019B9B6800229A60019B9B6800221A61E1
:10F83000019B9B6800225A61019B9B680022DA6051
:10F84000019B9B6800225A60019B9B6800221A6002
:10F8500000BF02B07047000000B583B00190009176
:10F86000019B002B03D110495020FEF7BFFF009BE6
:10F87000002B03D10C495120FEF7B8FF019B009AE1
:10F880001A60019B1B681A68019B5A60019B5A68A9
:10F89000019B1B685B689A4202D1019B00225A605F
:10F8A00000BF03B05DF804FBC459020000B583B08B
:10F8B0000190019B002B03D114496320FEF796FFB2
:10F8C000019B1B68002B03D110496420FEF78EFFBB
:10F8D000019B5B68002B14D0019B5B681A46019B5F
:10F8E0001B689B6813441A46019B5A60019B5A6827
:10F8F000019B1B685B689A4204D1019B00225A60FD
:10F9000000E000BF03B05DF804FB00BFC459020073
:10F9100000B585B001900091019B002B03D11849DF
:10F920003A20FEF763FF009B002B03D114493B20D4
:10F93000FEF75CFF019B5B6803930FE0019B9B68F4
:10F94000039A1268009910469847034683F0010312
:10F95000DBB2002B07D1039B1B680393039B1B683F
:10F96000002BEBD100E000BF039B1A68009B1A60DC
:10F97000039B009A1A6000BF05B05DF804FB00BF4E
:10F980004C5A020000B585B00190019B002B03D1B9
:10F990000C495120FEF72AFF019B5B681B6803930B
:10F9A000019B5B681B68002B06D0019B5B681A6893
:10F9B000019B5B6812681A60039B184605B05DF8EE
:10F9C00004FB00BF4C5A020000B583B00190019BBC
:10F9D000002B03D105495D20FEF708FF019B5B6802
:10F9E0001B68184603B05DF804FB00BF4C5A0200C8
:10F9F00000B585B001900091019B002B03D1164901
:10FA00006920FEF7F3FE009B002B03D112496A2008
:10FA1000FEF7ECFE00238DF80B30019B5B6803932F
:10FA20000FE0039B1B68009A9A4207D1009B1A685B
:10FA3000039B1A6001238DF80B3006E0039B1B68C3
:10FA40000393039B1B68002BEBD19DF80B301846EA
:10FA500005B05DF804FB00BF4C5A020000B585B04C
:10FA60000190019800F00EF80390039B002B01D049
:10FA7000039B00E0024B184605B05DF804FB00BF95
:10FA8000B45A020086B00190164B0593164B0493AE
:10FA90001FE0049A059BD31ADB10DA0F13445B10A6
:10FAA000DB00059A13440393039B1B680293029A9D
:10FAB000019B9A4202D9039B04930AE0029A019B9C
:10FAC0009A4203D2039B0833059302E0039B5B68D1
:10FAD00004E0059A049B9A42DBD30023184606B043
:10FAE000704700BFB45E0200DC5F020086B0019088
:10FAF0000091019B53E8011F8AB2D889024498897A
:10FB0000824228BF121A1889824202BFBFF32F8F88
:10FB1000002307E0C2EA010243E801200028E9D1FE
:10FB20004FF001038DF80F30059002910492029A74
:10FB3000009B1A609DF80F30DBB2184606B0704784
:10FB400084B00190019951E8013FC3EA034341E8C1
:10FB50000132002AF7D10392029300BF04B070472C
:10FB600086B001900091019B53E8021F1FFAA1F299
:10FB7000D888824202BFBFF32F8F00230DE0D889BF
:10FB800002449889824228BF121AC1EA024243E81D
:10FB900002200028E8D14FF001038DF80F300590C6
:10FBA00002910492029A009B1A609DF80F30DBB21A
:10FBB000184606B0704784B00190019951E8023FA1
:10FBC000C3EA234341E80232002AF7D103920293A9
:10FBD00000BF04B0704784B00390029111461A46EA
:10FBE0000B46ADF806301346ADF80430029B002BEF
:10FBF00001D10E231FE0BDF80630BDF80420B3FB91
:10FC0000F2F102FB01F29B1A9BB2002B01D00923F7
:10FC100011E0039B029A1A60039B00225A60039B27
:10FC200000229A60039BBDF806209A81039BBDF8D1
:10FC30000420DA810023184604B0704700B585B06F
:10FC400001900091009B19460198FFF74FFF034672
:10FC5000002B07D0019B1B68009A12881344039362
:10FC6000039B00E00023184605B05DF804FB00B5D7
:10FC700083B001900091009B1A88009B5B889A4298
:10FC800004D10198FFF75CFF012300E00023184630
:10FC900003B05DF804FB00B585B001900091009BB6
:10FCA00019460198FFF75CFF0346002B07D0019B24
:10FCB0001B68009A528813440393039B00E00023BF
:10FCC000184605B05DF804FB00B583B001900091C3
:10FCD000009B1A88009B5B889A4204D10198FFF729
:10FCE0006AFF012300E00023184603B05DF804FB1F
:10FCF000BFF34F8F00BF064BDB6803F4E06204499B
:10FD0000044B1343CB60BFF34F8F00BF00BFFDE731
:10FD100000ED00E00400FA0582B0144B1B68B3F15B
:10FD2000FF3F0AD1124B1B68DBB20193114B1B68DA
:10FD30001B0903F00F03009305E00C4B1B680193B4
:10FD40000D4B1B680093019B0D2B0AD1009B002BD0
:10FD500003D0009B012B02D003E0012302E001232A
:10FD600000E00023184602B0704700BF30010010C9
:10FD7000E00F00F0E80F00F03401001082B0144BE7
:10FD80001B68B3F1FF3F0AD1124B1B68DBB2019332
:10FD9000114B1B681B0903F00F03009305E00C4B8C
:10FDA0001B6801930D4B1B680093019B0D2B0AD11F
:10FDB000009B002B03D0009B012B02D003E001230A
:10FDC00002E0012300E00023184602B0704700BFA4
:10FDD00030010010E00F00F0E80F00F034010010D7
:10FDE00082B0144B1B68B3F1FF3F0AD1124B1B6862
:10FDF000DBB20193114B1B681B0903F00F03009347
:10FE000005E00C4B1B6801930D4B1B680093019B95
:10FE10000D2B0AD1009B002B03D0009B012B02D09D
:10FE200003E0012302E0012300E00023184602B0B2
:10FE3000704700BF30010010E00F00F0E80F00F045
:10FE400034010010024B034A1A6000BF704700BF24
:10FE5000582600200090D00308B5FFF75DFF034649
:10FE6000002B0ED04FF080430022C3F80C214FF03E
:10FE700080430022C3F810214FF080430022C3F8D2
:10FE80003825FFF77BFF0346002B76D04FF08053D9
:10FE9000684AD3F80434C2F820354FF08053654ADD
:10FEA000D3F80834C2F824354FF08053614AD3F8B0
:10FEB0000C34C2F828354FF080535E4AD3F8103422
:10FEC000C2F82C354FF080535A4AD3F81434C2F894
:10FED00030354FF08053574AD3F81834C2F83435D0
:10FEE0004FF08053534AD3F81C34C2F840354FF0DA
:10FEF0008053504AD3F82034C2F844354FF0805331
:10FF00004C4AD3F82434C2F848354FF08053494A5C
:10FF1000D3F82834C2F84C354FF08053454AD3F813
:10FF20002C34C2F850354FF08053424AD3F8303465
:10FF3000C2F854354FF080533E4AD3F83434C2F8F7
:10FF400060354FF080533B4AD3F83834C2F86435FB
:10FF50004FF08053374AD3F83C34C2F868354FF03D
:10FF60008053344AD3F84034C2F86C354FF0805394
:10FF7000304AD3F84434C2F87035FFF731FF0346F6
:10FF8000002B0DD04FF08043D3F8003403F0010371
:10FF9000002B05D04FF080436FF00102C3F800241E
:10FFA000254BD3F88830244A43F47003C2F88830D4
:10FFB000BFF34F8F00BFBFF36F8F00BF4FF0102311
:10FFC000D3F80032002B05DB4FF01023D3F80432B6
:10FFD000002B2BDA194B0122C3F8042500BF174B65
:10FFE000D3F80034002BFAD04FF010231222C3F8BC
:10FFF000002200BF114BD3F80034002BFAD04FF091
:020000022000DC
:1000000010231222C3F8042200BF0C4BD3F8003493
:10001000002BFAD0094B0022C3F8042500BF074B80
:10002000D3F80034002BFAD0FFF762FEFFF70AFF87
:1000300000BF08BD00C0004000ED00E000E001404E
:1000400000B583B00190019B1B68184600F0ABF827
:100050000346002B04D10B494FF4F670FEF7C6FBA4
:10006000019B1B681F2B02D84FF0A04306E0019BA9
:100070001B6803F01F02019B1A60034B184603B074
:100080005DF804FBDC5F02000003005000B585B0A2
:10009000019001AB1846FFF7D3FF0390019B0122AB
:1000A00002FA03F31946039800F069F800BF05B09F
:1000B0005DF804FB00B585B0019001AB1846FFF771
:1000C000BFFF0390019B012202FA03F31946039834
:1000D00000F05FF800BF05B05DF804FB00B585B027
:1000E000019001AB1846FFF7ABFF0390039BD3F8D9
:1000F00004350293029BDA43019B012101FA03F3C9
:100100001A40039BC3F80825019B01229A40029BD9
:100110001A40039BC3F80C2500BF05B05DF804FB33
:1001200000B583B001900091009B002B03D1019892
:10013000FFF7C0FF02E00198FFF7A8FF00BF03B080
:100140005DF804FB00B585B0019001AB1846FFF7E0
:1001500077FF0390039800F00AF80246019B22FA09
:1001600003F303F00103184605B05DF804FB82B009
:100170000190019BD3F80435184602B0704782B055
:1001800001900091019B009AC3F8082500BF02B0BE
:10019000704782B001900091019B009AC3F80C2532
:1001A00000BF02B0704784B00190019B5B090293CD
:1001B00000230393029B002B03D0029B012B04D04E
:1001C00007E04FF0FF33039303E040F2FF33039364
:1001D00000BF019B03F01F030193039A019B22FAC6
:1001E00003F303F00103002B14BF01230023DBB250
:1001F000184604B07047000000B585B00190019B1F
:10020000032B03D911493A20FEF7F0FA104A019B5B
:1002100013441B781846FFF795FF0346002B14BFC5
:10022000012300238DF80F309DF80F30002B14BFF1
:1002300001230023DBB283F00103DBB203F00103EF
:10024000DBB2184605B05DF804FB00BF0C6002008D
:100250006060020000B583B00190019B032B03D9BD
:1002600007494120FEF7C2FA064A019B13441B7856
:1002700000211846FFF754FF00BF03B05DF804FBF0
:100280000C6002006060020000B583B00190019B29
:10029000032B03D907494720FEF7A8FA064A019B1A
:1002A00013441B7801211846FFF73AFF00BF03B043
:1002B0005DF804FB0C6002006060020000B583B0D2
:1002C0000023019305E00198FFF7DEFF019B013356
:1002D0000193019B032BF6D900BF00BF03B05DF86B
:1002E00004FB00B583B00023019305E00198FFF7FC
:1002F000B1FF019B01330193019B032BF6D900BF92
:1003000000BF03B05DF804FB00B583B00190019B12
:10031000032B03D907495F20FEF768FA064A019BC1
:1003200013441B781846FFF7D9FE00BF03B05DF8F1
:1003300004FB00BF0C6002006060020082B0034654
:100340008DF807309DF90730002B0CDB9DF8073046
:1003500003F01F0205499DF907305B09012000FAEF
:1003600002F241F8232000BF02B0704700E100E034
:1003700082B0034600918DF807309DF90730002BBD
:100380000ADB009BDAB20C499DF907305201D2B268
:100390000B4483F800230BE0009BDAB207499DF879
:1003A000073003F00F03043B5201D2B20B441A761C
:1003B00000BF02B0704700BF00E100E000ED00E0C8
:1003C00082B00190019B1B0B5BB2184602B07047D4
:1003D00000B583B003460A468DF8073013468DF802
:1003E00006309DF80630012B03D99DF80630032B0B
:1003F0000BD99DF80630042B03D99DF80630072B46
:1004000003D908496B20FEF7F1F99DF806209DF904
:10041000073011461846FFF7ABFF00BF03B05DF889
:1004200004FB00BF6460020000B583B003468DF892
:1004300007309DF907301846FFF780FF00BF03B073
:100440005DF804FB00B583B00346ADF80630BDF897
:100450000630184600F026F803461B68012B0CBF37
:1004600001230023DBB2184603B05DF804FB00B59E
:1004700085B00346ADF80630BDF80630184600F0EA
:1004800011F803461A4600231360BDF806301846DB
:1004900000F008F803461B680393039B00BF05B0F8
:1004A0005DF804FB82B00346ADF80630BDF80630B7
:1004B00003F1804303F5C043184602B070470000C3
:1004C00082B00190034A019BC2F8043300BF02B01E
:1004D000704700BF0060004082B00190034BD3F82A
:1004E0000423019B1340184602B07047006000408F
:1004F00082B00190084A019B03F5A27352F82330A1
:10050000054943F00102019B03F5A27341F8232042
:1005100000BF02B0704700BF0060004084B003908D
:10052000029113468DF80730144A039B03F5A2731A
:1005300052F82330114923F44F3323F44073039AC4
:1005400002F5A27241F822300C4A039B03F5A27314
:1005500052F82320029B1B0203F47C519DF80730C4
:100560001B0403F440330B4304491A43039B03F574
:10057000A27341F8232000BF04B070470060004020
:1005800082B00190054A019B03F5A27352F8233013
:100590001B0A03F03F03184602B07047006000409A
:1005A00082B00190064A019B03F5A27352F82330F2
:1005B0001B0C03F00303DBB2184602B0704700BF08
:1005C0000060004000B583B00190019B1B68184695
:1005D00000F02AF90346002B04D10B494FF4F670C2
:1005E000FEF704F9019B1B681F2B02D84FF0A043B4
:1005F00006E0019B1B6803F01F02019B1A60034B7E
:10060000184603B05DF804FB94600200000300503C
:1006100000B585B00190084611461A4603468DF88C
:1006200003300B468DF8023013468DF8013001ABD4
:100630001846FFF7C7FF03909DF803209DF802308E
:100640005B001A439DF801309B001A439DF8183057
:100650001B0242EA03019DF81C301B04019A194356
:10066000039B02F5E07243F8221000BF05B05DF86D
:1006700004FB00B585B003900B468DF80B309DF858
:100680000B300022019200220092002200210398E8
:10069000FFF7BEFF00BF05B05DF804FB00B585B0F5
:1006A000019001AB1846FFF78DFF0390019A039B61
:1006B00002F5E07253F8223023F002030293019A0C
:1006C000039B02F5E072029943F8221000BF05B0C7
:1006D0005DF804FB00B585B001900B468DF8033042
:1006E00001AB1846FFF76EFF0390019A039B02F5DA
:1006F000E07253F82230019A23F44031039B02F553
:10070000E07243F82210019A039B02F5E07253F85D
:1007100022309DF8032012041146019A1943039BCD
:1007200002F5E07243F8221000BF05B05DF804FB4B
:1007300000B585B0019001AB1846FFF743FF039069
:10074000039800F020F80246019B22FA03F303F01D
:100750000103184605B05DF804FB00B585B00190B3
:1007600001AB1846FFF72EFF0390019A039B02F599
:10077000E07253F822301B0C03F00303DBB218467F
:1007800005B05DF804FB82B00190019BD3F81035F1
:10079000184602B07047000088B0039002910192A1
:1007A000164A05AB92E8030083E80300039B079316
:1007B00019E0079B9B0008AA134453F80C3CD3F89C
:1007C0002025019B1A60079B9B0008AA134453F83D
:1007D0000C3C019A1268C3F82025019B0433019355
:1007E000079B01330793039A029B1344079A9A428B
:1007F000DFD300BF00BF08B0704700BFC460020075
:1008000000B585B0019001AB1846FFF7DBFE039001
:10081000019B012202FA03F31A46039BC3F8202529
:1008200000BF05B05DF804FB84B00190019B5B093B
:10083000029300230393029B002B03D0029B012B06
:1008400004D007E04FF0FF33039303E040F2FF339F
:10085000039300BF019B03F01F030193039A019BC5
:1008600022FA03F303F00103002B14BF012300233A
:10087000DBB2184604B0704784B001900091009B31
:100880000393019BDB080293019B03F00703019391
:100890000122019B02FA03F30399029A0A44127897
:1008A0001340184604B0704784B001900091009B3B
:1008B0000393019BDB080293019B03F00703019361
:1008C000039A029B13441B785AB20121019B01FA3F
:1008D00003F35BB2134359B2039A029B1344CAB2A7
:1008E0001A7000BF04B0704782B001900C4A019B9F
:1008F0001344303393F90030002B09DB084A019B85
:100900001344303393F90030072B01DC012300E05E
:10091000002303F00103DBB2184602B0704700BFAA
:10092000342D002082B00190064A019B13443033DD
:1009300093F90030072BCCBF01230023DBB218460C
:1009400002B07047342D002082B00190064A019B0E
:100950001344303393F90030DB43DBB2DB09DBB205
:10096000184602B0704700BF342D002084B00390B9
:10097000029101928DF80330029B59B20E4A039BFB
:10098000134430330A461A700B49029B019A41F80E
:1009900023209DF8033083F00103DBB2002B08D045
:1009A000029B083B039A51B2034A13440A4683F858
:1009B0005A2000BF04B07047342D002082B001904F
:1009C000044A019B13443033FF221A7000BF02B067
:1009D000704700BF342D002000B583B0019004495A
:1009E0000198FFF761FF00BF03B05DF804FB00BF93
:1009F000922D002082B00190044A019B13443033B1
:100A000093F90030184602B0704700BF342D002023
:100A100082B00190034A019B52F82330184602B07D
:100A2000704700BF342D002084B00190074A019B1D
:100A300013445A3393F900308DF80F309DF80F307E
:100A400023F0C003184604B0704700BF342D0020C7
:100A500084B00190074A019B13445A3393F9003044
:100A60008DF80F309DF80F309B09DBB2184604B0AB
:100A7000704700BF342D002000B589B0039002916B
:100A800013468DF80730FF238DF81F309DF807308F
:100A9000002B01D0002300E0082305939DF80730C8
:100AA000002B01D0082300E00C230493059B069340
:100AB00014E00F4A069B52F82330B3F1FF3F0AD1EE
:100AC0009DF80730029A06990398FFF74FFF069B9F
:100AD0008DF81F3006E0069B01330693069A049BAF
:100AE0009A42E6D39DF91F30184609B05DF804FB21
:100AF000342D002082B003468DF807309DF8073072
:100B0000094A4FF0FF3142F823109DF80730072BB8
:100B100007D99DF80730083B034A1344FF2283F8A6
:100B20005A2000BF02B07047342D002000B583B0BA
:100B30002D4B93F86430002B03D008230093009BC7
:100B40004EE000238DF8073011E09DF8073018467D
:100B5000FFF76AFE0346002B04D09DF807301846C5
:100B6000FFF72CFF9DF8073001338DF807309DF813
:100B70000730292BE9D900238DF8073009E09DF8CB
:100B800007301846FFF7B6FF9DF8073001338DF8A0
:100B900007309DF807300B2BF1D9062200211348AE
:100BA00004F062FA1248FFF70BFC034606211846D0
:100BB000FFF70EFC0E48FFF703FC03461846FFF74D
:100BC00033FC4FF4BE70FFF752FC4FF00040FFF7CC
:100BD00077FC054B012283F8642000230093009BDF
:100BE000184603B05DF804FB342D0020922D002040
:100BF0000060004000B587B0039002910192039815
:100C0000FFF712FE0346002B04D136494FF40C7057
:100C1000FDF7ECFD002305930398FFF795FE0346CF
:100C2000002B02D00823059357E0029B9B78C3F367
:100C30004003DBB21A4601990398FFF71DFF0346F4
:100C40008DF813309DF91330B3F1FF3F43D0029B71
:100C50009B78C3F38003DBB283F00103DBB2002B8C
:100C600013D0029B9B7803F00103DBB2002B03D06F
:100C70000398FFF713FD05E0029B5B781946039884
:100C8000FFF7F7FC0398FFF7A7FE029B9B7803F0A2
:100C90000203DBB2002B08D09DF91300029B1B78E6
:100CA0001A460399FFF73AFC17E09DF91330083B09
:100CB0000D4A134493F95A10029B1B789B015AB2B8
:100CC0009DF91330083B0A4351B2074A13440A46C0
:100CD00083F85A2001E004230593059B184607B0CA
:100CE0005DF804FBD4600200342D002000B589B00B
:100CF00001900B468DF803300198FFF795FD0346F0
:100D0000002B04D13A494FF41870FDF76FFD01989C
:100D1000FFF71AFE0346002B04D1354940F261204B
:100D2000FDF764FD0198FFF7FDFD0346002B2AD077
:100D30000198FFF75FFE0346083B1846FFF788FE61
:100D400003468DF80F309DF80F30032B0BD101981F
:100D5000FFF7EEFC0346002B01D0032300E0022343
:100D60008DF81F3008E09DF80F30012B01D10223D0
:100D700000E003238DF81F309DF81F3019460198BD
:100D8000FFF7A8FC30E00198FFF7AEFD0346002B0B
:100D90002AD00198FFF72EFE03460693069B9BB2CE
:100DA00040339BB29B00ADF81630069B1846FFF708
:100DB0009FFBBDF816301846FFF759FB9DF803302E
:100DC000002B11D00198FFF715FE03461846FFF7D8
:100DD0001FFE0490049B002B06D00122069B02FA02
:100DE00003F31846FFF76CFB00BF09B05DF804FB86
:100DF000D460020000B585B00190019A0221002064
:100E0000FFF7CAFC002303930BE0039B9B00019AAE
:100E100013441B68002B01D0012306E0039B013320
:100E20000393039B012BF0D90023184605B05DF80E
:100E300004FB000000B587B00190002305935BE040
:100E4000344A059B13445A3393F90030B3F1FF3F02
:100E50004ED00598FFF7E8FD049001990498FFF73C
:100E60000BFD0346002B44D00598FFF7F1FD034628
:100E70008DF80F300498FFF770FC03468DF80E30A4
:100E80009DF80E30022B01D1032300E002238DF8E0
:100E90000D309DF80D3019460498FFF71BFC04989F
:100EA000FFF7AEFC0498FFF7A5FD03461846FFF7D1
:100EB000AFFD0290029B002B1BD09DF80F30032B3F
:100EC0000FD09DF80E30022B03D19DF80F30012B6F
:100ED00007D09DF80E30032B0BD19DF80F30022B5D
:100EE00007D19DF80F20029B11460498984700E017
:100EF00000BF059B01330593059B032BA0D90198E7
:100F0000FFF778FF0346002B97D100BF00BF07B063
:100F10005DF804FB342D002000B58BB0002308934E
:100F200001AB00221A605A604FF48073ADF81A309A
:100F3000012309930023079321E0BDF81A301846D6
:100F4000FFF780FA0346002B0ED00998FFF7C4FA8A
:100F50000346002B08D0BDF81A301846FFF787FA71
:100F6000089A099B13430893099B5B000993BDF8FA
:100F70001A300433ADF81A30079B01330793079BEF
:100F8000072BDAD94FF4BE70FFF75CFA0346002B4B
:100F90000DD04FF4BE70FFF76AFA089B43F0004390
:100FA000089301AB1A4602210020FFF7F5FB089BCE
:100FB000DBB2002B29D0012309930023079321E002
:100FC000099A089B1340002B16D00798FFF7D8FA10
:100FD00005900798FFF7E4FA03468DF81330079859
:100FE000FFF716FD0390039B002B05D09DF81320FF
:100FF000039B114605989847099B5B000993079B43
:1010000001330793079B072BDAD9089B002B03DAE0
:1010100001AB1846FFF70EFF00BF0BB05DF804FBF5
:1010200008B5064B1B68002B03D105495120FDF77D
:10103000DDFB024B1B68984700BF08BD9C2D0020BC
:101040002C61020082B00190019B044A934201D1BD
:10105000034B00E00023184602B070470020004018
:101060009C2D002000B587B001900091019B002BC2
:1010700003D11C497720FDF7B9FB0198FFF7E2FF88
:101080000590059B002B25D000238DF813300023FD
:101090008DF80B300DF10B031846FCF76DFF059B27
:1010A0001B79002B03D001238DF8133005E0059B3D
:1010B000009A1A60059B01221A719DF80B301846A0
:1010C000FCF770FF9DF81330002B03D0112303931E
:1010D000039B02E000230393039B184607B05DF8CF
:1010E00004FB00BF2C61020082B003468DF807307C
:1010F0009DF90730002B0CDB9DF8073003F01F0231
:1011000005499DF907305B09012000FA02F241F818
:10111000232000BF02B0704700E100E082B0034628
:1011200000918DF807309DF90730002B0ADB009BFA
:10113000DAB20C499DF907305201D2B20B4483F860
:1011400000230BE0009BDAB207499DF8073003F05B
:101150000F03043B5201D2B20B441A7600BF02B017
:10116000704700BF00E100E000ED00E082B00190B8
:10117000019B1B0B5BB2184602B0704700B583B0F1
:1011800003460A468DF8073013468DF806309DF861
:101190000630012B03D99DF80630032B0BD99DF89F
:1011A0000630042B03D99DF80630072B03D90849D4
:1011B0006B20FDF71BFB9DF806209DF907301146BB
:1011C0001846FFF7ABFF00BF03B05DF804FB00BF9C
:1011D0009061020000B583B003468DF807309DF999
:1011E00007301846FFF780FF00BF03B05DF804FB2F
:1011F00082B001900B468DF803309DF80330019AC0
:10120000134401221A6000BF02B0704784B00190FD
:101210000B46ADF80230BDF80230019A13440022AB
:101220001A60BDF80230019A13441B680393039BB4
:1012300000BF04B0704782B001900B46ADF8023099
:10124000BDF80230019A13441B68002B14BF012320
:101250000023DBB2184602B0704782B001900091C3
:10126000019B009AC3F8042300BF02B0704782B00C
:1012700001900091019B009AC3F8082300BF02B0BF
:10128000704782B00190019B0522C3F8002500BF82
:1012900002B0704782B00190019B0022C3F8002584
:1012A00000BF02B0704784B0039002910192039B8B
:1012B000029AC3F80825039B019AC3F80C2500BFC6
:1012C00004B0704782B001900091019B009AC3F86E
:1012D000242500BF02B0704784B00190019BD3F871
:1012E000C4340393019B039AC3F8C424039B184698
:1012F00004B0704782B001900B468DF803309DF822
:101300000320019BC3F8882500BF02B0704782B05C
:101310000190019BD3F81835DBB2184602B0704734
:1013200082B001900B468DF803309DF80320019B9D
:10133000C3F81C2500BF02B0704782B00190009135
:10134000019B009AC3F8002200BF02B07047000062
:1013500000B583B00190019B1B68184600F04FF860
:101360000346002B04D10B494FF4F670FDF73EFA0B
:10137000019B1B681F2B02D84FF0A04306E0019B86
:101380001B6803F01F02019B1A60034B184603B051
:101390005DF804FBC06102000003005000B585B099
:1013A0000190084611461A4603468DF803300B4655
:1013B0008DF8023013468DF8013001AB1846FFF767
:1013C000C7FF03909DF803209DF802305B001A438D
:1013D0009DF801309B001A439DF818301B0242EA29
:1013E00003019DF81C301B04019A1943039B02F56D
:1013F000E07243F8221000BF05B05DF804FB84B032
:101400000190019B5B09029300230393029B002B35
:1014100003D0029B012B04D007E04FF0FF3303936E
:1014200003E040F2FF33039300BF019B03F01F036F
:101430000193039A019B22FA03F303F00103002BAB
:1014400014BF01230023DBB2184604B0704784B0F8
:10145000019003230393019B03F00103002B02D0AF
:101460004FF402430393019B03F00203002B02D0CD
:1014700048F201230393019B03F00403002B02D0E5
:1014800048F202230393039B184604B0704700B54B
:1014900083B001900091009B5A6B009B9B6A9A421B
:1014A00007D00198FFF7F6FE0198FFF7EAFE002348
:1014B00000E00123184603B05DF804FB00B58BB0D3
:1014C0000590049103920293049B002B03D14D4994
:1014D000AA20FDF78BF9049B1A68049B5B689A426B
:1014E00003D14849AB20FDF781F9059B1B791A46CA
:1014F00013461B019B1A9B00434A13440893089B05
:1015000093F82E30002B03D008230793079B74E039
:10151000059B1A68059B1B7919463C4B53F82130F3
:1015200019461046FFF79EFD0346002B03D01123FA
:101530000793079B61E0089B039A1A60089B029A35
:101540005A60089B00229A60089B002283F82D2095
:10155000089B002283F83120089B002283F830206A
:10156000049B5A7B089B83F83820049B186800234F
:10157000019306230093032300220021FFF70EFFAF
:10158000049B586800230193062300930323002241
:101590000021FFF703FF059B1B680993049B196853
:1015A000049B5B681A460998FFF77DFE049B9B68C5
:1015B00019460998FFF786FE089B1B68002B15D07B
:1015C000059B1B681846FFF7D1FD03461A46049B8E
:1015D0001B7B19461046FFF7D1FD059B1B6818467B
:1015E000FFF7C4FD03461846FFF7F4FD089B0122F0
:1015F00083F82E2000230793079B18460BB05DF855
:1016000004FB00BFF4610200A42D0020546202001C
:1016100000B585B00190019B1B791A4613461B014A
:101620009B1A9B000D4A13440393039B93F82E309F
:10163000012B04D00A494FF48570FDF7D7F8019BC0
:101640001B6802930298FFF71CFE039B022283F89B
:101650002E2000BF05B05DF804FB00BFA42D0020C4
:10166000F461020000B583B001900091009B5A6BB9
:10167000009B9B6A9A420AD2009B5A6A009B5B6B52
:1016800013441B7819460198FFF74AFE1EE0009BA1
:1016900093F82C30002B05D01C210198FFF7A8FDF2
:1016A000002314E0009B1B6A03F04003002B09D0C9
:1016B0001C210198FFF79CFD009B012283F82D203F
:1016C000002304E014210198FFF792FD012318463E
:1016D00003B05DF804FB10B582B001900091009B4F
:1016E0005A6B009B9B6A9A4244D2009B5A6A009BA9
:1016F0005B6BD4180198FFF70AFE03462370009B2A
:101700005B6B5A1C009B5A63009B5A6B009B9B6A45
:10171000013B9A420AD1009B1B6A03F04003002B55
:1017200004D102210198FFF708FE1FE0009B5A6BCD
:10173000009B9B6A9A4207D1009B1B6A03F04003FF
:10174000002B01D1012316E0009B5A6B009B9B6A82
:101750009A420BD1009B1B6A03F04003002B05D07B
:10176000009B022283F82D20002304E02021019811
:10177000FFF73EFD0123184602B010BD00B585B04D
:101780000190009100238DF80F304FF48271019881
:10179000FFF751FD0346002B07D04FF482710198EB
:1017A000FFF734FD01238DF80F30009B93F82F30A5
:1017B000002B0FD04FF492710198FFF727FD4FF4E3
:1017C0008E710198FFF722FD4FF484710198FFF7A5
:1017D0001DFD78E04FF492710198FFF72CFD034650
:1017E000002B0DD04FF492710198FFF70FFD1421DB
:1017F0000198FFF7FDFC009B012283F82F2062E097
:101800004FF48E710198FFF716FD0346002B2BD085
:101810004FF48E710198FFF7F9FC009B5B6B5A1C2B
:10182000009B5A634FF492710198FFF704FD034641
:10183000002B0DD04FF492710198FFF7E7FC1421B3
:101840000198FFF7D5FC009B012283F82F203AE096
:1018500000990198FFF706FF034683F00103DBB20E
:10186000002B30D0002354E04FF484710198FFF72F
:10187000E2FC0346002B26D04FF484710198FFF759
:10188000C5FC4FF492710198FFF7D5FC0346002B7D
:101890000DD04FF492710198FFF7B8FC1421019814
:1018A000FFF7A6FC009B012283F82F200BE0009994
:1018B0000198FFF710FF034683F00103DBB2002B12
:1018C00001D0002325E09DF80F30002B20D0009B95
:1018D000002283F82D20009B93F82F3083F0010322
:1018E000DBB2002B12D000990198FFF7D0FD034620
:1018F000002B14BF01230023DBB283F00103DBB212
:1019000003F00103DAB2009B83F82F20002300E0EC
:101910000123184605B05DF804FB000000B587B050
:101920000190009100230593384B03934FF482718B
:101930000198FFF76BFC4FF492710198FFF766FC7A
:101940004FF48E710198FFF761FC4FF48471019898
:10195000FFF75CFC00210198FFF7EFFC009B0022E1
:101960005A63009B002283F82F2020210198FFF763
:101970003FFC009B93F82D30012B03D008210198E8
:10198000FFF736FC00990198FFF76CFE009B1B687F
:10199000002B0DD0009B40F286229A60009B9B6832
:1019A00019460198FFF759FC2AE0039B013B03937A
:1019B000039B002B06DD00990198FFF7DFFE03462D
:1019C000002BF2D1009B93F82F30002B0DD0019803
:1019D000FFF782FC0490049B002B04D00498FFF7CF
:1019E00036FD059001E003230593039B002B07DCE4
:1019F0000198FFF74FFC0198FFF743FC0323059381
:101A0000059B184607B05DF804FB00BFA0860100E7
:101A100000B587B001900091002305933D4B0393DF
:101A20004FF482710198FFF7F1FB4FF49271019826
:101A3000FFF7ECFB4FF48E710198FFF7E7FB4FF4D3
:101A400084710198FFF7E2FB009B00225A63009B20
:101A5000002283F82F20009B9B6A012B0AD1009B58
:101A60001B6A03F04003002B04D102210198FFF709
:101A700064FC03E001210198FFF75FFC202101983D
:101A8000FFF7B6FB009B93F82D30022B03D000210B
:101A90000198FFF7ADFB009B1B68002B0DD0009B4E
:101AA00040F286229A60009B9B6819460198FFF7D6
:101AB000D4FB2AE0039B013B0393039B002B06DD31
:101AC00000990198FFF75AFE0346002BF2D1009BC4
