:020000021000EC
:10C000000000022075C301005DC301005FC3010091
:10C0100061C3010063C3010065C3010000000000AB
:10C0200000000000000000000000000067C30100E5
:10C0300069C30100000000006BC301006DC3010073
:10C040005DE301006FC30100F5E701006FC301006C
:10C050006FC301006FC3010075E601006FC30100EB
:10C060006FC301006FC301006FC301006FC3010004
:10C070006FC301006FC301006FC301006FC30100F4
:10C080006FC3010021D601006FC301006FC301001F
:10C090006FC301006FC3010031F801006FC30100DD
:10C0A0006FC301006FC301006FC301006FC30100C4
:10C0B0006FC301006FC3010000000000000000001A
:10C0C0006FC301006FC301006FC301006FC30100A4
:10C0D0006FC301006FC301006FC301006FC3010094
:10C0E0006FC301000000000000000000000000001D
:10C0F000000000006FC30100000000006FC30100DA
:10C10000000000000000000000000000000000002F
:10C11000000000000000000000000000000000001F
:10C12000000000000000000000000000000000000F
:10C1300000000000000000000000000000000000FF
:10C1400000000000000000000000000000000000EF
:10C1500000000000000000000000000000000000DF
:10C1600000000000000000000000000000000000CF
:10C1700000000000000000000000000000000000BF
:10C1800000000000000000000000000000000000AF
:10C19000000000000000000000000000000000009F
:10C1A000000000000000000000000000000000008F
:10C1B000000000000000000000000000000000007F
:10C1C000000000000000000000000000000000006F
:10C1D000000000000000000000000000000000005F
:10C1E000000000000000000000000000000000004F
:10C1F000000000000000000000000000000000003F
:10C20000354936480A1A02D0072291438D463449EF
:10C2100034480A1A06D00722914381F30988022282
:10C2200082F3148830483149314A00F044F83148EB
:10C230003149324A00F03FF831483249324A00F081
:10C240003AF832483249334A00F035F83248334937
:10C25000334A00F030F833483349344A00F02BF8C1
:10C2600033483449344A00F026F83448344900222F
:10C2700000F02CF833483449002200F027F8334806
:10C280003349091A082902DB002202604160314A61
:10C2900090471F481F49884205D00268043003B404
:10C2A000904703BCF7E700208646EC4600200021BB
:10C2B000294A9047FEE7884207D0521A05D00378F2
:10C2C00001300B700131013AF9D17047884202D038
:10C2D00002700130FAE770470000022000F80120E8
:10C2E00000000220000002204C0B02000C2600205F
:10C2F00048260020D0C30100D0C30100F6FD010094
:10C300004C0B02000C2600200C260020D4FE01005D
:10C31000D4FE0100D4FE0100D4FE0100D4FE0100D1
:10C32000D4FE0100D4FE0100D4FE01004A0B02003D
:10C33000880B0200482600204826002048260020BE
:10C34000AC310020AC310020AC310020AC310020F9
:10C35000AC3900209DC301005DED0100FEE7FEE762
:10C36000FEE7FEE7FEE7FEE7FEE7FEE7FEE7FEE7A5
:10C3700000F002B8FFF7FCBF0F484FF007018843F9
:10C3800085460E4880470E48016841F470010160FF
:10C39000BFF34F8FBFF36F8FFFF732BF09480A49D2
:10C3A0000A4A884207D0521A05D0037801300B7030
:10C3B0000131013AF9D1704700000220E9DE0100A5
:10C3C00088ED00E0D4FE01000C2600200C260020A1
:10C3D0007047000007B5044B0093044A402300F067
:10C3E00032F803B05DF804FBF1C3010049260020D8
:10C3F0002DE9F84388461446B2B10F4B0F4E032582
:10C40000002743F00109224608EB0701002002F053
:10C410009DFD0744241A48B933782BB14FF47A4074
:10C42000C847013D02D13570BDE8F8830123337060
:10C43000002CE8D1F8E700BFE0FE0100482600200C
:10C44000704702F0B7BDF0B595B01D4616460846D8
:10C450000C4601F097FC1A9B0D93CDE90865002569
:10C460002B46082205A920460A958DF82C500C95DC
:10C4700001F0A5FC079B0293069B03939DF81430E3
:10C480008DF8115003F00302012A1DD1BDF81420CC
:10C49000059DC3F3C203C2F383168DF81030B200BA
:10C4A00008230EA9204601F08AFCC5F3952508ABA8
:10C4B0000093324602AB0EA9284600F027FB204627
:10C4C00001F064FC15B0F0BD022AF8D1BDF8165099
:10C4D000C3F3C203C5F389158DF810300827082D62
:10C4E0002E4628BF08263B4632460EA9204601F0BC
:10C4F00066FCAD1B08AB02AA31460EA8374400F01B
:10C5000069FB002DEBD1DAE708B5FFF79AFF044885
:10C51000042100F065FA034B01225A7108BD00BFE7
:10C52000C4FE01000C260020037813F0040216D08C
:10C5300003F00303012B03D0022B09D00120704725
:10C540000A6800880232C0F3831002440A60F5E7EB
:10C550000B684288023303EB92130B60EEE7104640
:10C56000704700002DE9F04F87B000230446861C79
:10C570000DF107000F4615468DF8073000F0E2FE7A
:10C58000404A51683960936803F580735B1A92469C
:10C5900002F21C4702F5836902F21448B3421AD32F
:10C5A0000020002D69D004F00F039B0143F0050328
:10C5B00063F30F00DAF80430DAB203321E444AF8AB
:10C5C00022009DF80700CAF8046000F0DFFE012099
:10C5D00007B0BDE8F08F0121384601F0FEF848466B
:10C5E00001F013F9404601F010F9DAF80800029062
:10C5F000C0B203300AEB800002A9FFF795FF029B4F
:10C6000030BBDAB20AEB8202D16803919A1C013383
:10C61000DBB20AEB83030292D3F80CB001F0030300
:10C62000012B22D0022B15D08346404601F0F0F8B2
:10C6300010B1029BCAF808305946384601F0CDF8CF
:10C64000DAF80830DAF8042003F580739B1AA5E7BE
:10C65000D8B2CEE7BDF80E30C3F3891303334FEAE7
:10C660001B4B02EB93030293DFE7BDF80C30C3F3DF
:10C6700083134FEA1B4B1344F5E7A40544F006006F
:10C6800098E700BF5C270020064B074810B5002242
:10C690001A7001F030FB044610B9044801F099FB10
:10C6A000204610BD5C27002030FE01001CFF010069
:10C6B00030B50A4C71B10A4A0A49121BD20800234C
:10C6C0009A4201D1002030BD31F82350854202D07A
:10C6D0000133F5E7034654F83300F4E744FE010064
:10C6E000C4FE01000C260020094B013903EBC000F9
:10C6F000032909D8DFE801F00A0204060420704784
:10C7000000797047407970470020704702207047D9
:10C7100044FE0100034BD3E90130C31A584258418B
:10C72000704700BF5C2700202DE9F04186B0FFF77D
:10C73000F1FF0546002840F0E680744CC4F8180468
:10C74000BFF34F8FA3680293DBB2033304EB830084
:10C7500002A9FFF7E9FE029B18B1D4F81824002AB9
:10C7600055D0DAB2991C013304EB8202DBB204EB40
:10C770008303D268DB68049302F00303022B039265
:10C7800002914FD1BDF80E306148C3F38917502F85
:10C790003E4628BF502666F38F1306F10801ADF818
:10C7A0000E3001F0C0FA0546002800F0978001F035
:10C7B000E9FA002303A90822284601F0F6FA0299B3
:10C7C000CB43DBB20133C9B20331B6EB830F4FEA7F
:10C7D000830804EB810122D908234246A6EB080610
:10C7E000284601F0E2FAF6B24A4908F10803324657
:10C7F000284601F0DAFA029B033703EB970702970A
:10C80000D4F81834002B41D1D4F8106451E0626898
:10C810009A4299D8A260284606B0BDE8F081082364
:10C820003246E5E7012B59D1BDF80C303848C3F347
:10C830008311062928BF062161F38913023189007B
:10C84000ADF80C3001F06FFA0546002846D001F033
:10C8500099FA0023082203A9284601F0A6FA002627
:10C86000BDF80C20C2F38312B300964203F1080313
:10C87000C6D202994A1CC9B20331029204EB81016B
:10C880000422284601F091FA0136E9E7284601F032
:10C890007DFAFFF73FFF80F00100C5B2BBE7F36808
:10C8A0005B7923B1336829461B6830469847F368A3
:10C8B0001E68002EF3D1284601F068FA0DF107003A
:10C8C0008DF8076000F03EFDD4F818340BB9029BD8
:10C8D000A3609DF8070000F059FDDAE7D4F8104492
:10C8E00054B90D4B0D480E49C01AC008000440F061
:10C8F000020000F05DF8CCE7236820469B6898476B
:10C90000E3681C68ECE7002585E700BF5C27002092
:10C9100030FE01006827002044FE01006CFE01008B
:10C9200004FF01002DE9F34704460E46924601A993
:10C93000012218469946FFF715FE1B4F10B3019DC3
:10C940004FF00008AA1CC84508EB020123D1174884
:10C95000002100F013FF80F31000000440EA1440AF
:10C96000E4006B1C04F03804DBB2EDB244F00104C7
:10C9700007EB8303033544EA881444EA8624D8602D
:10C9800047F825403B781BB1FFF7CEFE0028FBD1CE
:10C9900002B0BDE8F087C9B207EB81015AF8283030
:10C9A000CB6008F10108CEE75C270020782B00203F
:10C9B00000231A46FFF7B6BF07B50123019201AA6B
:10C9C000FFF7B0FF03B05DF804FB07B5CDE9002326
:10C9D00002236A46FFF7A6FF03B05DF804FB0000E0
:10C9E00030B50F49D1F8102403460020144634B95D
:10C9F000DC6820714AB9C1F81034226030BDE468A7
:10CA00002579854206D02468F1E7D2681168216053
:10CA10001360F3E701300A28E8D14FF0FF30EDE76B
:10CA20005C270020084A38B50123D2F8104413705F
:10CA30001D4604B938BDE3685D71236820465B6814
:10CA40009847E3681C68F4E75C27002007B50346B5
:10CA50000846197A052911D05B7A2BB1094A0A498F
:10CA6000019000F038FF01980849019000F033FF71
:10CA7000019803B05DF804EB00F022BF002AF8D063
:10CA8000F2E700BF28FF01002DFF01004DFF01006C
:10CA900030B5C38885B004460D4633B1144A0092C0
:10CAA0001449154A284600F016FF217A05291DD0A1
:10CAB000637A4BB1A088FFF717FE104B104953F86B
:10CAC0002020284600F007FF227A0E4BA08853F85A
:10CAD000222003920021FFF7EBFD039A0A49034647
:10CAE000284605B0BDE8304000F0F5BE05B030BDC9
:10CAF00028FF010038FF010030FF0100B4FF0100F2
:10CB00002DFF0100D8FF010050FF01002DE9F04387
:10CB100085B01F460C9D002395F80C902B7306469C
:10CB20000C46904629463846FFF7B2FFB8F1060F8B
:10CB300009D8DFE808F00412181F283340003146F6
:10CB4000284600F0C8FE002229463846FFF77EFF3F
:10CB500085F80C9005B0BDE8F08322683146284680
:10CB600000F0B9FEEFE7D4E900233146284600F093
:10CB7000B2FEE8E7A36800933146D4E900232846D3
:10CB800000F0A9FEDFE7E3680193A3680093314654
:10CB9000D4E90023284600F09EFED4E723690293DF
:10CBA000E3680193A36800933146D4E90023284643
:10CBB00000F091FEC7E76369039323690293E3687A
:10CBC0000193A36800933146D4E90023284600F07E
:10CBD00082FEB8E708292DE9F74F80460E46174632
:10CBE0001C463CD8002593F80C901D73194610463E
:10CBF000FFF74EFFDFF888A0DFF888B0AE4231D9EA
:10CC000018F805205946204600F065FE0135082D2C
:10CC1000F4D11949194DDFF870A0204600F05BFEF1
:10CC20004FF0000B5E4522D918F80B207E2A05D85C
:10CC30001046019203F02CF8019A00B92E225146B9
:10CC4000204600F048FE0BF1010BBBF1080FE9D1C3
:10CC5000012221463846FFF7F9FE84F80C9003B014
:10CC6000BDE8F08F5146204600F035FECEE729465C
:10CC7000204600F030FEE6E764FF010062FF01009D
:10CC800060FF01005AFF010066FF0100C30710B5F5
:10CC900007D4F023054A4008145C2340194311547B
:10CCA00010BD0901C9B20F23F4E700BF482C0020D2
:10CCB00030B5094B1C78094B196800239C4202DCF3
:10CCC0000022104630BD11F83350854201EBC302FB
:10CCD000F7D00133F2E700BF142C0020682C0020AD
:10CCE00013B504460191FFF7E3FF38B143682BB158
:10CCF0000199204602B0BDE81040184702B010BDAF
:10CD0000034B044819680022490800F02ABA00BF02
:10CD1000182C0020202C002010B5C0B2FFF7C8FF4F
:10CD20000446007801F098FC63785A1E5342534140
:10CD3000834208D1044BD3E90023134303D1BDE858
:10CD40001040FFF7DDBF10BD402C002037B5430871
:10CD5000354AD35CC2074CBF1B0903F00F030446DE
:10CD60000D46042B35D8DFE803F003252C383C00B2
:10CD700079B30121FFF78AFF00230DF107008DF839
:10CD8000073000F0DFFA0120A4F12003C4F12001F4
:10CD9000264A20FA01F100FA03F30B43A040D2E93E
:10CDA000004120430B43C2E900039DF8070000F057
:10CDB000EDFA0EE0002918BF02212046FFF766FFBA
:10CDC00007E041B10321FFF761FF01212046FFF792
:10CDD00087FF03B030BD0121EFE70029F9D104211D
:10CDE000EBE709B10321E8E7FFF750FF29462046AA
:10CDF000FFF776FF0DF107008DF8075000F0A2FA5B
:10CE00000120A4F12003C4F12001084A20FA01F115
:10CE100000FA03F30B43A040D2E9004124EA0000EA
:10CE200021EA0303BFE700BF482C0020402C00206C
:10CE30002DE9F041124E134F00243378A34208DC51
:10CE4000114BD3E90023134318D0BDE8F041FFF79D
:10CE500057BF3D6805EBC40815F8340001F0FCFB32
:10CE600098F801305A1E53425341181A4142414129
:10CE700015F83400FFF76AFF0134DEE7BDE8F08102
:10CE8000142C0020682C0020402C0020092AF7B523
:10CE900005460C4616463CD901F00EFBD8B11E4B98
:10CEA0001E481D601E4B1F4F1C701F4B002120226F
:10CEB0001E6002F01BFF1D4B00200021C3E9000192
:10CEC000013CE4B20326FF2C0BD1194A194800217A
:10CED00000F03CF903E001F0A9FA0028DFD003B02C
:10CEE000F0BD9DF8063015F834008DF8046005EBB0
:10CEF000C40223F007038DF8063001A993788DF85A
:10CF000005303A4601F0E2FA013CE4B20028DAD0FA
:10CF1000E5E70720E3E700BF682C0020482C00204D
:10CF2000142C002019CD0100182C0020402C0020CA
:10CF300031CE0100F8FF010070B5084D084E002405
:10CF40002B789C4201D3002070BD3368012113F877
:10CF5000340001F037FB0134F2E700BF142C00204D
:10CF6000682C00201FB50021039001AA44F20100A3
:10CF7000CDE9011100F004F805B05DF804FB0000F4
:10CF800010B572B6FFF74EFDFFF7CEFB0028FBD1C0
:10CF9000104B114C1149E41AE408240444F0010038
:10CFA000FFF706FD0E4B1B68DB0700D500BE0D49E1
:10CFB00044F00200FFF7FCFCBFF34F8F0A490B4B14
:10CFC000CA6802F4E0621343CB60BFF34F8F00BF27
:10CFD000FDE700BF44FE01006CFE0100FCFF010004
:10CFE000F0ED00E00800020000ED00E00400FA05AA
:10CFF000D0E90223D1E90201994208BF90422CBF37
:10D00000012000207047000008B50B4800F0F1FA3D
:10D010000A4B0B49D3E900231218D1E9000143F16F
:10D0200000038B4208BF824203D212F1807243F1A7
:10D0300000031046194608BD14260020702C00205D
:10D04000E82C002037B505460C460A4801A900F037
:10D0500004FB60B10570446001A9064800F027FB9D
:10D0600018B1054800F0CAFA002003B030BD042012
:10D07000FBE700BFD42C00201426002038B5184B45
:10D080001B78044613B90025284638BD0028FAD07D
:10D09000037F03F0FF05002BF5D0FFF7B5FFD4E9C0
:10D0A0000223994208BF904214D3236903B923771E
:10D0B000D4E90530984721690029E4D0237F03F0A3
:10D0C000FF05002BDFD0D4E90223521843F10003FF
:10D0D000C4E902230348214600F09AFED4E700BFCA
:10D0E000782C00202400020013B5114B1149186858
:10D0F000019008231048582200F09CFA044698B981
:10D100000E4A0F4801A900F065F9044660B90C48C1
:10D11000012100F051FA01230A4A0948194600F09A
:10D12000B3F9094B01221A70204602B010BD00BFAE
:10D13000200002007C2C0020D42C0020ADD1010066
:10D1400014260020FFFF7F00782C00203AB10368EE
:10D150005A614A1E5142514119610020704707200F
:10D16000704738B5037F04460D4683B98261FFF7E7
:10D170004BFF2369401941F10001C4E9020103B1E9
:10D18000256121460020BDE83840FFF75BBF002045
:10D1900038BD0023014603770120FFF753BF00008D
:10D1A000014800F026BA00BF142600202DE9F04FF8
:10D1B00085B0804600F008FA40B15A4AD2E9003101
:10D1C00013F1807341F10001C2E9003100214046B2
:10D1D00000F009FA38B1544E336823B13068FFF7D4
:10D1E0004DFF002333600121404600F0FCF920B1DF
:10D1F000FFF70AFF4D4BC3E900014D484A4F4D4E22
:10D20000DFF8389103A900F062FA002845D1DFF871
:10D210002491454EDFF828A1484600F00FFE336800
:10D22000002875D07BB13368D0E90201D3E902232D
:10D23000994208BF90422DD233681B7F1BB13168E1
:10D24000484600F0E5FD484600F0F2FDD0E902B3A3
:10D2500007460193FFF7D8FE019BBBEB000463EB8D
:10D260000105012C75F1000345DBB4F5350F40D302
:10D27000FFF796FF304A02444FF4960300215046D0
:10D2800000F022F900283ED1336813B9404600F07F
:10D29000F3F8376005B0BDE8F08F0378012B1DD09F
:10D2A000022B09D14FF0000A304600F0C1FD0028E2
:10D2B00034D080F81CA0F7E73BB941680B7F23B955
:10D2C00001230B77304600F0A3FD03A9184800F0B6
:10D2D00029FA03A9164800F0FAF996E741683B6875
:10D2E000994202D100233B60EFE7304600F0A9FDF0
:10D2F000EBE7BA68C0E70021504600F06AF938460B
:10D30000FFF7BCFE01E00D28F9D00023336083E76E
:10D31000002BBFD1404600F0B3F8BBE7012389F8EA
:10D320000030D2E7702C0020F02C0020E82C0020E8
:10D33000D42C002024000200FFFFB400782C002031
:10D340001426002070B5EFF3108672B60C4A94686C
:10D3500001239CB993600B4B0B4DD3F880102940EF
:10D360001160C3F88050D3F8841051604FF0FF3241
:10D37000C3F88420047006B962B670BD0370FAE782
:10D38000F42C002000E100E0FC06FFBD084B9A6889
:10D3900010B55AB150B9EFF3108172B6054A1C6846
:10D3A00014605C685460986001B962B610BD00BF3B
:10D3B000F42C002000E100E0435882B03BB1002390
:10D3C000435043580193019B012002B07047184617
:10D3D000FBE70000F8B5204B4479204D43F82420AA
:10D3E0001F4A204B05EBC4049B1A2279DB081B045F
:10D3F00032B143F002001C49FFF7DAFA0820F8BD09
:10D4000002680C88C2F8084590F904608A780479AB
:10D410005201002ED2B219DB14498F1987F800236C
:10D420000122760904F01F0402FA04F441F82640B0
:10D43000427905EBC201012445F832000C7143F03A
:10D4400003000B49FFF7B4FA0020D8E7094904F0BC
:10D450000F040A55ECE700BF082D0020002D002026
:10D4600044FE01007CFE01003000020000E100E00B
:10D470005200020014ED00E0036801221A607047B8
:10D48000036801225A60704773B501F15005AD0081
:10D490000068ADB24FF480348C400026C0F80843D9
:10D4A000C0F84843465101F5A8714559019522F04D
:10D4B0007F42019D40F82120C0F844430BB1C0F8E1
:10D4C000044302B070BD00002DE9F74F0D4622F075
:10D4D0007F4402684FF4803705F150068F40804644
:10D4E000B60002EB8500C2F84873B6B2C2F8087302
:10D4F000D2F8041599464FF0000BD0F84035C0F82B
:10D50000401542F806B05B1A9259009223F07F430F
:10D51000012B009A4FEA850A0CD1264B4FF480600C
:10D5200043F001039847D8F8003043F806B09B5900
:10D530000193019BD8F80010D1F80465C1F8447339
:10D54000A31B23F07F43012B1CD11A4B05F5A875B3
:10D55000013443F0010341F825404FF480609847BF
:10D56000D8F80030D3F804359E4209D1D8F80030FD
:10D570000020C3F84473C3F8047303B0BDE8F08F10
:10D580000D20FAE78A44C9F1FF13CAF84045D1F8E3
:10D590000405221A013A22F07F4203F57F439342A9
:10D5A000EED3002AE2D10134CAF84045D1F804355F
:10D5B0009842DAE77000020003680222C3F84423AD
:10D5C00009B1C3F80423704700684FF48271FFF774
:10D5D000F3BE4FF4803303FA01F10368C3F8481334
:10D5E000C3F80813704750318900006889B2FFF70B
:10D5F000E3BE0368D3F804057047000090F90430D7
:10D60000002B09DB5A09012103F01F0301FA03F380
:10D610004032024941F82230704700BF00E100E08B
:10D62000024B034A1B681068184700BF082D0020F2
:10D63000002D002010B561B1B2FBF3F403FB1424FC
:10D64000A4B244B9C0E9001484608281C381204639
:10D6500010BD0E20FCE70920FAE737B550E8013F7E
:10D660009DB2C48925448489A54228BF2D1B048905
:10D67000A54202BFBFF32F8F002207E0C5EA0305D2
:10D6800040E80154002CE9D14FF001028DF803204D
:10D690000193019B9DF803200B6002F0FF0322B170
:10D6A0000B880068184403B030BD1846FBE70A88B1
:10D6B0004B889A4209D150E8012FC2EA024240E861
:10D6C0000123002BF7D1012070470020704737B5A8
:10D6D00050E8023F1FFAA3F5C488A54202BFBFF37A
:10D6E0002F8F00220DE0C48925448489A54228BFDC
:10D6F0002D1BC3EA054540E80254002CE8D14FF049
:10D7000001028DF803200193019B9DF803200B601B
:10D7100002F0FF0322B14B880068184403B030BD0B
:10D720001846FBE70A884B889A4209D150E8022F35
:10D73000C2EA224240E80223002BF7D101207047C1
:10D740000020704701F01F024B090121914000EBBE
:10D75000830000F01EB801F01F0301229A404B091C
:10D7600000EB8300D14300F02CB84B0901F01F01FE
:10D7700050F82300C84000F00100704710B5034680
:10D7800053E8000F0A4643E8002494F0000FF7D155
:10D7900010BD10B5034653E8002F42EA010043E8EC
:10D7A000000494F0000FF6D110BD10B5034653E805
:10D7B000000F00EA010243E8002494F0000FF6D1C4
:10D7C00010BD10B5034653E8002F02EA010043E8FC
:10D7D000000494F0000FF6D110BD10B5034653E8D5
:10D7E000002F02EB010043E8000494F0000FF6D193
:10D7F00010BD10B5034653E8002FA2EB010043E82B
:10D80000000494F0000FF6D110BD0121FFF7C1BF55
:10D810000021FFF7CABF10B590B1D0E9012301681C
:10D820009B1ADBB20A60013BDBB2FF2B026802D11C
:10D830000020107110BD11684C1C14600B70F2E7D1
:10D840000E20F7E737B5054600240DF107008DF8E7
:10D850000740FFF777FD2A686B68116899420ED977
:10D86000481E106011F8014CEB68298A01FB043452
:10D87000AB6811791B1ADBB2994238BF13719DF85E
:10D880000700FFF783FD204603B030BD37B50546DE
:10D8900000230DF107000C468DF80730FFF752FD0D
:10D8A0002A681368591C1160E968641A298AB4FB54
:10D8B000F1F41C709DF80700FFF768FD03B030BD60
:10D8C000826810B504462AB1436901680069984727
:10D8D0000023A36010BD0EB403B5039921B104ABBE
:10D8E00001AA019300F076F802B05DF804EB03B0F2
:10D8F00070470A2938B504460D4602D10D21FFF7BD
:10D90000F8FFA3682268591CA160D554D4E90132FC
:10D910009A4204D32046BDE83840FFF7D1BF38BD56
:10D920002DE9F84F9846DDE90A43154682460F4631
:10D930000A464FF00109AA420FD2C14538BFC1467D
:10D9400013F0010B01D16CB900240126B8F1010FCD
:10D950001BD908F1FF386E43F8E709F10109B2FB62
:10D96000F5F2E8E79B070ED5B8F1000F0CBF3026A3
:10D970002026A145E9D2013C31465046FFF7B9FFC8
:10D98000002CF6D1E0E72026F3E7B7FBF6F39D4243
:10D99000E1D9DFF83C80B7FBF6F3504618F80310E6
:10D9A00006FB1377FFF7A5FF3346AB42B6FBF5F650
:10D9B000F1D2BBF1000F02D00CB1A14501D3BDE8FB
:10D9C000F88F20215046013CFFF793FFF4E700BF9A
:10D9D000760002002DE9F74F0546174688460029D4
:10D9E00000F0428118F8011B49B92B7B002B00F095
:10D9F0003B81284603B0BDE8F04FFFF761BF252902
:10DA000040F0B780002698F800302D2B424608F1F0
:10DA1000010823D0302B24D02B2B25D000242A2BF7
:10DA200002F1010123D13B681A1D1B683A601C44B6
:10DA30000A4613782E2B26D101324FF0000A1046E9
:10DA400010F8011BA1F1300CBCF1090F1DD80A23FD
:10DA500003FB0A13A3F1300A0246F0E746F0010681
:10DA6000D1E746F00206CEE746F00406CBE711F810
:10DA7000013CA3F130000928DBD80A2202FB043460
:10DA8000303C0A46CBE74FF0000A12F8011B01F0C8
:10DA9000FB0068289046F8D0782909D86F290CD85F
:10DAA000632962D022D8252963D0582900F08880C4
:10DAB00098F80030002B95D197E770390829F7D8EE
:10DAC00001A353F821F000BF43DC0100B1DA0100EB
:10DAD000B1DA0100D1DB0100B1DA0100AFDB0100F6
:10DAE000B1DA0100B1DA0100C1DB0100642901D023
:10DAF0006929DDD13A68D2F80090111D89EAE972EE
:10DB00003960A2EBE9724FF0010B092A35DCD345ED
:10DB100038BFD3462CB1B9F1000F01DB720700D535
:10DB2000013CB30702D5BAF1000F03D0F00701D4CE
:10DB30004CBB0024B9F1000F2DDAC9F100092D21E9
:10DB40002846FFF7D6FE06F00302022A04D1BAF1F6
:10DB5000000F01D11CBB0024CDE9004653460A2228
:10DB600049462846FFF7DCFEA2E73B681A1D1978F4
:10DB70003A602846FFF7BDFE9AE70A230BF1010B36
:10DB8000B2FBF3F2C1E7A345D4D220212846013CE1
:10DB9000FFF7AFFECCE77107D5D52B21D0E7A34522
:10DBA000DAD230212846013CFFF7A3FED2E73968DC
:10DBB000CDE900460A1D3A6053460A220968D0E7BB
:10DBC00039680A1D3A60CDE9004653461022F5E750
:10DBD0003B681A1D3A6016F00106D3F8009028D170
:10DBE000B9F1000F03D0484602F0D5F80646B4421A
:10DBF00000D904BB09F1FF3919F8011F00293FF4CE
:10DC000057AF2846FFF775FEF6E728460136FFF7BF
:10DC100070FE19F806100029F7D1A642BFF448AFEC
:10DC2000002C3FF445AF20212846013CFFF761FE60
:10DC3000F3E70026EDE720212846013CFFF759FED7
:10DC4000D5E73B681A1D3A60302128461C68FFF76B
:10DC500050FE78212846FFF74CFE00220823CDE92C
:10DC60000032214610227CE703B0BDE8F08F00BFF0
:10DC70002DE9F84FB0F806A04579D2F800B09DF82C
:10DC800028900AFB05F5043D88460BEB0301A942E9
:10DC900003F1040488BFA5EB030BB4FBFAF60746B7
:10DCA0000AFB1644C2F800B04EB9AAEB04055D4564
:10DCB00028BF5D46BBF1000F04D1BDE8F88F3F6877
:10DCC000013EF1E7043408EB06003C442A46B9F172
:10DCD000000F0DD02146ABEB050B01F0DEFFDA455E
:10DCE0002E443F6855464FF0000428BF5D46E1E7EB
:10DCF00001462046EFE7FFF78EBDF8B546790146AD
:10DD0000721E0546002393422D6803D30024A642C9
:10DD100002D8F8BD0133F6E70F682846FFF7B6FDD5
:10DD200001343946F3E72DE9F843068ACD1C07464E
:10DD3000FFF788FD043E35440446B5FBF6F5F0B127
:10DD40004FF48073EDB28380C680013D0760814649
:10DD50004FF00008A84512D23846FFF773FD06467B
:10DD600048B163790133637108F10108C9F8000013
:10DD700007608146EEE72046FFF7BFFF34462046A6
:10DD8000BDE8F88301210430FFF727BD10B501215C
:10DD900004460430FFF72DFD10F0FF0F04D120469C
:10DDA000BDE81040FFF7A9BF10BD1FB503920022C8
:10DDB000009203AAFFF75CFF05B05DF804FB1FB5F6
:10DDC00003920122009203AAFFF752FF05B05DF80B
:10DDD00004FB836800225A60C3E904229A60DA6077
:10DDE0001A6070470B684A684360934208BF00237B
:10DDF000016008BF43607047436843B1026891689F
:10DE000052680B449342436004BF00234360704751
:10DE100070B5446806460D46206818B1B3682946B7
:10DE2000984718B923682B60256070BD2468F3E714
:10DE30004368186808B102681A6070474368186838
:10DE400070474368186800B97047884203D1026878
:10DE50001A600120704703460068F4E710B50D49C9
:10DE6000A1F59472914201D800200FE08C1AE30FC3
:10DE700003EBE4035B1002EBC30452F8333083423C
:10DE800005D802D204F10802ECE7606810BD214613
:10DE9000E8E700BF9005020008B5FFF7DFFF024B7F
:10DEA000002808BF184608BD520402000A4B1B6830
:10DEB0005A1C05BF094B0A4A0A4A10680ABF1B7858
:10DEC0001068C0F303100D2B04D101288CBF002073
:10DED000012070470020704730010010E00F00F073
:10DEE000E80F00F03401001008B5FFF7DFFF40B184
:10DEF0004FF080430022C3F80C21C3F81021C3F86F
:10DF00003825FFF7D3FF002846D04FF080524D4B05
:10DF1000D2F80414C3F82015D2F80814C3F8241555
:10DF2000D2F80C14C3F82815D2F81014C3F82C1525
:10DF3000D2F81414C3F83015D2F81814C3F83415F5
:10DF4000D2F81C14C3F84015D2F82014C3F84415B5
:10DF5000D2F82414C3F84815D2F82814C3F84C1585
:10DF6000D2F82C14C3F85015D2F83014C3F8541555
:10DF7000D2F83414C3F86015D2F83814C3F8641515
:10DF8000D2F83C14C3F86815D2F84014C3F86C15E5
:10DF9000D2F84424C3F87025FFF788FF48B14FF04A
:10DFA0008043D3F80024D20744BF6FF00102C3F8C6
:10DFB0000024254AD2F8883043F47003C2F8883030
:10DFC000BFF34F8FBFF36F8F4FF01023D3F80022B2
:10DFD000002A03DBD3F80432002B2FDA1B4B01227B
:10DFE000C3F80425D3F80024002AFBD04FF01022F8
:10DFF0001221C2F80012D3F80024002AFBD04FF0FF
:10E0000010231222C3F80422104B1A46D3F800142E
:10E010000029FBD00021C3F80415D2F80034002BEE
:10E02000FBD0BFF34F8F0849094BCA6802F4E06286
:10E030001343CB60BFF34F8F00BFFDE7054B064A8C
:10E040001A6008BD00C0004000ED00E000E00140A3
:10E050000400FA051C2600200090D003074B1B5C2F
:10E060001F2B8ABF064A4FF0A04203F01F03D2F8CD
:10E070000405D840C04300F001007047900502003D
:10E0800000030050074B1B5C1F2B86BF064903F0A3
:10E090001F034FF0A041012202FA03F3C1F80C352F
:10E0A000704700BF9005020000030050074B1B5C47
:10E0B0001F2B86BF064903F01F034FF0A04101222A
:10E0C00002FA03F3C1F80835704700BF900502005B
:10E0D0000003005008B50020FFF7E8FF0120FFF71C
:10E0E000E5FF0220FFF7E2FFBDE808400320FFF74D
:10E0F000DDBF08B50020FFF7C5FF0120FFF7C2FF15
:10E100000220FFF7BFFFBDE808400320FFF7BABFBA
:10E110000A4B185C1F288ABF094B4FF0A04300F040
:10E120001F00D3F804250121814021EA02000A40A2
:10E13000C3F80805C3F80C25704700BF900502001E
:10E14000000300500B2809D00C2809D0182809D04A
:10E1500019280CBF03204FF0FF3070470020704794
:10E160000120704702207047C20710B504460CD545
:10E170004FF0A0430322C3F83427C3F83827C3F86D
:10E180003C27C3F84027FFF7A5FFA3070AD54FF0A8
:10E19000A0430C22C3F82C27C3F83027C3F860270C
:10E1A000C3F8642710BD000038B5074C051E04F104
:10E1B000080318BF1C4623682BB11A6822605B68ED
:10E1C00028469847F7E738BD142D002020B9054BA5
:10E1D00001225A70FFF7E8BF012802D1014A90706E
:10E1E000F8E770470C2D002020B9034B01225A702C
:10E1F000FFF7DABF704700BF0C2D002038B50E4C7A
:10E200002378B3B90D486360A3602361E36000F035
:10E2100073F8054601F0F2FA08B900F079F8012325
:10E220002370074BD3F800340BB10123A3702846A9
:10E2300038BD8525F5E700BF0C2D0020CDE101009C
:10E240000000014037B50D4C00230DF107008DF89B
:10E250000730FFF777F8E368013BE360E36833B921
:10E26000074BD3F8005415B900F064F8A5709DF879
:10E270000700FFF78BF803B030BD00BF0C2D002066
:10E2800000000140012813B50CD0032820D038B974
:10E29000124B0122C3F88020BFF34F8FBFF36F8F63
:10E2A00002B010BD0E4C00230DF107008DF80730B1
:10E2B000FFF748F823780BB9FFF7A0FFE3689DF854
:10E2C00007000133E3600123A370FFF75FF8E7E77E
:10E2D00000F01EF8FFF7B6FFE2E700BF00E100E044
:10E2E0000C2D002000F18040002382B00360036801
:10E2F0000193019B02B07047044A137923B90121AD
:10E30000106011711846704785207047202D00203D
:10E31000074B1A68D20704D4C02283F800230122D5
:10E320001A604FF080430122C3F81825704700BFE0
:10E3300000E100E04FF0804208B50223C2F8083344
:10E340004FF48270FFF7CEFF034B01211960D2F822
:10E350001834DB03FBD408BD0C000040114B1B68D4
:10E3600010B563B14FF48070FFF7BCFF4FF08043EE
:10E370000122C3F808230C4B00201B6898470B4B65
:10E380001B6873B14FF48270FFF7ACFF4FF080430E
:10E390000222C3F80823044BBDE810401B6801208B
:10E3A000184710BD00010040202D0020040100404E
:10E3B00000F1804000F5C040002382B00360036894
:10E3C0000193019B02B0704703681F2B83BF03F0CA
:10E3D0001F03036001484FF0A04070470003005046
:10E3E00007B5019001A8FFF7EFFF019B00EB830049
:10E3F000D0F8003723F44033C0F80037D0F80037A6
:10E4000043EA0141C0F8001703B05DF804FB0000C7
:10E41000054B4FF0FF32072843F8202084BFC01877
:10E4200080F85220704700BF282D002038B51E4CC0
:10E4300094F86430ABBB40F2FF31FF205A09012A47
:10E4400014BF4FF0FF320A4603F01F05EA40D2071F
:10E4500048BFE21803F1010348BF82F830002A2BBD
:10E46000ECD10021C8B2FFF7D3FF01310C29F9D15B
:10E47000062200210D4801F039FC0D4BC02283F823
:10E48000062340221A604FF4BE70FFF791FF094B3C
:10E490004FF00042C3F80423012384F864300020C5
:10E4A00038BD0820FCE700BF282D0020862D002065
:10E4B00000E100E000600040034B93F86400003886
:10E4C00018BF0120704700BF282D0020F7B53B4E34
:10E4D0003318054693F93030002B6CDA8B78C3F390
:10E4E0004003002B0BBF082400240C20082084428A
:10E4F00002D1042003B0F0BD56F82470013743D197
:10E50000701946F8242080F8304013B9331983F885
:10E5100052508B785A0717D4D80737D501A80195E0
:10E52000FFF752FF019B00EB8300D0F8003723F088
:10E530000203C0F800372248EA0805F00707012364
:10E54000BB40875C3B4383548B780A7813F002030B
:10E5500028D0A40004F1804404F5C0442D02D4F86E
:10E56000103523F44F3323F44073C4F810351204EC
:10E57000D4F8103505F47C5502F4403215431D43A0
:10E58000C4F810550020B5E70134B0E701A84A7877
:10E590000195FFF719FF019B03F5E073920040F826
:10E5A0002320C8E7083C344494F85A5045EA8212C4
:10E5B00084F85A20E6E708209CE700BF282D0020B9
:10E5C000862D002073B5224C2618054696F930207A
:10E5D000072A1ADD224492F852309B09032B0FD1EF
:10E5E000019001A8FFF7F0FE019BD0F81015D9406B
:10E5F00001F0010102312846FFF7F2FE02B070BDC2
:10E60000012B0CBF02210321F5E7D3B2072BF5D86C
:10E61000930003F1804303F5C043D3F8100540F0A5
:10E620000100C3F8100502F14000800080B2FFF73E
:10E63000BFFE0029E2D096F9303054F82330002B89
:10E64000DCD0012303FA02F2024BC3F80423D5E71E
:10E65000282D00200060004007B5019001A8FFF7B9
:10E66000B3FE019BD0F81005D84000F0010003B0C4
:10E670005DF804FB2DE9FF470024CDE90244584D25
:10E680004FF48072012102F1804303F5C04390B240
:10E690001B68012B06D1D5F804330B4202D0FFF7DB
:10E6A00087FE0C430432B2F5907F4FEA4101EAD174
:10E6B0004C4B1B68012B11D14FF4BE70FFF778FE55
:10E6C0004FF0A04344F00044D3F820250292C3F851
:10E6D0002025D3F820280392C3F8202814F0FF0F38
:10E6E0001AD0414F00250126344210D0AB0003F16F
:10E6F000804303F5C043D3F81005D3F8101557F83D
:10E70000253023B1C1F30141C0F3052098470135FD
:10E71000082D4FEA4606E7D1002C59DA324D334C2A
:10E72000334E4FF00008012716F9013B5A1C3CD02C
:10E73000C3F3C20104A801445FFA83F911F8081C6D
:10E7400003F03F0203F0070307FA03F319422CD04A
:10E7500001A80192FFF738FE019B03F5E07350F822
:10E760002330C3F3014ABAF1020F10460CBF032154
:10E770000221FFF735FE01A80192FFF725FE019B5C
:10E7800007FA03F3C0F82035AB1893F9303055F889
:10E79000233053B14FEA9911032904D0BAF1020F83
:10E7A00019D1012901D11046984708F10108B8F1A3
:10E7B000040FB9D14FF0A043D3F820250292C3F83B
:10E7C0002025D4F820350393C4F820351343A7D16E
:10E7D00004B0BDE8F087BAF1030FE6D10229E1E702
:10E7E000006000407C610040282D002000030050A4
:10E7F000822D0020014B1B68184700BF902D002080
:10E800000220FFF785BC00002DE9F04780460D4649
:10E81000FFF798FC0328044610D8012D10D0022DD4
:10E8200030D05DB91A48FEF7B4FC1A4B04EB440231
:10E8300013449E78184B1B5DB34219D0BDE8F08796
:10E84000144D00EB4002A918AE5C4A78470052B163
:10E85000DFF84C900E484A464FF48041FEF781FCA9
:10E8600008B989F800803B192B449A780A4B1A554D
:10E87000002EE3D0094B1B68002BDFD03046BDE8EB
:10E88000F047184700EB4004024804446678EFE77D
:10E89000C02D0020002E0020192E0020142E002054
:10E8A000982D002000780221FFF7AEBF08B5094B74
:10E8B0001B7853B10020FFF7F9FB0120FFF7F6FBAF
:10E8C000BDE808400320FFF7F1BBBDE80840FFF7B3
:10E8D00001BC00BF992D0020F8B57B4C237805467C
:10E8E0001BB100232370FFF7E1FF172D00F2888092
:10E8F000DFE805F00C17174354657680888D888D06
:10E90000959A9A9A9A9AC4C9D1D9E4E4FFF7CEFFAE
:10E910006E48FEF73EFC6E4B002204461A702046FD
:10E92000F8BD0020FFF79AFBF8B10020FFF7BEFB0F
:10E93000022D0CBF4FF4E1614FF47A61644B1D70FE
:10E940004FF400404FF47A740025E0FB01454FF48A
:10E95000FA6200232046294601F0DAF80022014637
:10E96000BDE8F8405948FEF7FCBBFFF78BFB022DD2
:10E970000CBFC8214FF4C871E0E70020FFF76EFB21
:10E9800040B10020FFF792FB4FF44871504B032237
:10E990001A70D5E7FFF776FBC821F7E70020FFF7ED
:10E9A0005DFB38B10020FFF781FB4FF47A61484BE3
:10E9B0000422EDE7FFF766FB4FF4C871F7E700208C
:10E9C000FFF74CFB48B10020FFF770FB404B0522DE
:10E9D0001A7040F6CD410022C2E7FFF753FBF5E77E
:10E9E0000020FFF795FB3A4B06221A70002240F2F6
:10E9F0006661B5E70020FFF745FB354B07221A702B
:10EA000000248CE701202070FFF782FBEEE7012055
:10EA10002070FFF77DFB00224FF40051A0E7FFF7C5
:10EA200068FB2B4B0C22EAE72A482B4EFEF7B1FB82
:10EA3000D5F1110504461CD0D8B9012D13D0C82337
:10EA40005D434FF400474FF47A7000214FF4FA62AF
:10EA50000023C7FB050101F05BF8224601461D4873
:10EA6000FEF77FFB04460220FFF70CFB0123337007
:10EA700055E70220FFF71AFB0023F8E7FFF716FF20
:10EA8000134B1222BBE7FFF711FF0020FFF7FAFA42
:10EA90000F4B1322B3E7FFF709FF0120FFF7F2FA4C
:10EAA0000B4B1422ABE7FFF701FF0020FFF7EAFA58
:10EAB0000120FFF7E7FA064B1522A0E7FFF719FB45
:10EAC000034B1D709CE700BF102E0020E02D00209E
:10EAD000182E0020A02D0020992D0020044B1B682B
:10EAE000DB0703D5034B1878FFF7F6BE704700BF6E
:10EAF0000C2E0020182E0020044B1B6813F001037D
:10EB000001D0FFF7E9BE1846704700BF0C2E002069
:10EB100038B51C4B18601C4B10F0020405461960F8
:10EB20001AD01A4B1A480E221A700F22DA701022CD
:10EB30009A7111225A72042140F23332FEF7A6F97B
:10EB4000044648B9FEF7F8F9044628B90146114AC7
:10EB50001148FEF7FBFA0446EB0711D50120FFF739
:10EB600003FB6CB921460D4A0D48FEF7EFFA044647
:10EB700030B9BDE838400B4A0B480121FEF7E6BA30
:10EB8000204638BD0C2E0020142E0020002E002020
:10EB9000B8050200A5E80100DC050200DDEA01007D
:10EBA000E005020001E80100D8050200032811D8A1
:10EBB000012A0AD101290FD100F10E02D2B20D4B68
:10EBC00000EB40001A54002070470129F7D00229B9
:10EBD00004D049B1072070470022F8E7054B00EB4D
:10EBE000400018444270EEE7024B00EB400018442E
:10EBF0008270E8E7002E002008B5012202210020E3
:10EC0000FFF7D4FF08B1072810D107220221012005
:10EC1000FFF7CCFF08B1072808D100210A220846D7
:10EC2000FFF7C4FF10B1072808BF002008BD00008F
:10EC30000388102B10B502D0112B1ED010BD1A4C1A
:10EC40002168B1B901220846FFF7B0FF08B10728D3
:10EC500024D1072202210120FFF7A8FF08B10728CD
:10EC60001CD1042202210020FFF7A0FF08B10728D1
:10EC700014D1236801332360E0E70B4A1368013B9A
:10EC80001360002BDAD1FFF7B7FF0028D6D0074B6F
:10EC90001B68002BD2D0BDE810401847034B1B68FF
:10ECA000002BE6D09847E4E7242E0020202E0020F9
:10ECB00072DF704773DF704774DF70470E2808B546
:10ECC00002D00F2814D008BD0020FFF7DBF90C4B51
:10ECD00001211878FFF7EEFF08B1FEF743F9022093
:10ECE000FFF70AFF0028EED0BDE80840FEF73AB96A
:10ECF0000020FFF7DBF9024B1878FFF7DDFFF1E7A3
:10ED00003026002010B5134B92B028B95A78013242
:10ED10005A70DA780132DA705922ADF800200424F2
:10ED20003C22002103A80293ADF8044000F0DEFF6E
:10ED3000094A8DF80F40002352F8041B8DF80C305F
:10ED400003A8CDF830D000F0B1F908B1FEF70AF908
:10ED500012B010BD672E002020260020F7B54FF41A
:10ED600080410020FDF790FC08B1FEF7FBF8FDF7AD
:10ED7000CBFB00F005FD08B1FEF7F4F8002301A974
:10ED80000120019300F08AFD08B1FEF7EBF801A81D
:10ED900000F052FE08B1FEF7E5F81F4C0120FFF726
:10EDA000B1FF18220021204600F0A0FF05234FF4F8
:10EDB000C8622370A2600023184919486360224684
:10EDC0002375A381FFF774FF08B1FEF7CBF8FEF7B8
:10EDD0008BF908B1FEF7C6F812490320FFF798FE39
:10EDE00008B1FEF7BFF81048104C1149114F124EF0
:10EDF000124D241AE408240444F003042046FDF7CD
:10EE0000D7FD3A6831462046FDF7D6FD2A680C4901
:10EE10002046FDF7D1FDF4E7302E0020202600200B
:10EE200030260020BDEC010044FE01006CFE010014
:10EE3000E4050200282E0020FC0502002C2E0020F4
:10EE4000040602000369C1688B429DBF8268D21824
:10EE500002F1FF3203F1FF3394BF501A581A704782
:10EE60002DE9F843D0E902940546A9EB040840686F
:10EE7000904520440F46144404D900F00EFFEC6086
:10EE8000BDE8F8834246A4EB090400F006FF686879
:10EE9000224607EB0801F0E72DE9F843C56806466E
:10EEA000894617464FF000083469B3687068A54278
:10EEB00028BFE418013C621B5C1BBC4228BF3C46D7
:10EEC000944228BF144649462844224600F0E5FEF5
:10EED000B3682544AB4208BF00253F1BA044A144B2
:10EEE000F560E1D14046BDE8F883000010B5114C53
:10EEF000114AA2610223C4E90433104BE361A26406
:10EF00004FF400730E4A0F492362E264002310227B
:10EF1000E01DA3626362E362A3656365E365226546
:10EF200000F017FF0849204600F013FF2023A371CB
:10EF300010BD00BF6C2E002011060200F42E002030
:10EF4000E42E00201A0602001E060200F8B5184C36
:10EF5000182300FB033503FB00402544C46A012C41
:10EF60000F4616460FD0022C1AD0F4B92846FFF7E8
:10EF700069FF864205D8324639462846FFF770FFBA
:10EF800034462046F8BD2846FFF75CFF86423446EB
:10EF900028BF0446224639462846FFF761FFF0E7BE
:10EFA0002846BDE8F840FFF777BF0024E9E700BF37
:10EFB0006C2E0020FFF79ABF6DDF704779DF704736
:10EFC0007DDF704764DF70472DE9F04F85B0002585
:10EFD0000E9CBDF83CB0B4F800A0019107469046E5
:10EFE0001E46A9463A884A450DDC45B12388013BB7
:10EFF000A3EB0A039BB2FF2B3AD806F80A30002095
:10F0000005B0BDE8F08F7A6852F82900039000221D
:10F010000DF10B0103A8FFF7D5FF0028F0D19DF8F3
:10F020000B20424521D12288002D14BF0020022050
:10F0300002EB0801014459451ADC3DB9013292B294
:10F04000019B2280B35422880132228022880DF154
:10F050000B01324403A8FFF7B5FF0028D0D1218867
:10F060009DF80B200A442280012509F10109B9E726
:10F070000C20C5E72DE9F341089FBDF82480154613
:10F08000CDE90078022204461E46FFF79DFF50B9E5
:10F090003346102229462046CDE9087802B0BDE863
:10F0A000F041FFF791BF02B0BDE8F0812DE9F04FCC
:10F0B00000231788138090F82D3085B006460D4642
:10F0C000144653B3082F01D80C2027E102A8FFF7FC
:10F0D00073FF002840F0228123880822EA54238805
:10F0E00001339BB21B222380EA542088013080B276
:10F0F000208006220DF10901284400F0CEFD23886E
:10F100009DF8082006339BB212F0FE0218BF0122C0
:10F110002380EA54238801332380B378FBB123880A
:10F120000433BB42D0D802A8FFF748FF002840F0C4
:10F13000F58023880322EA54238801339BB21922E5
:10F140002380EA542388BDF8082001339BB2E918D4
:10F150002380EA54120A4A70238802332380F2780B
:10F160009AB12388D91CB942AED80221E954238828
:10F1700001339BB201212380E95423880B449BB2C5
:10F180002380EA5423880B4423807268AAB1238821
:10F19000D91CB94298D8022192F90020E954238859
:10F1A00001339BB20A212380E954238801339BB2A7
:10F1B0002380EA542388013323803389002B40F0D5
:10F1C000A180338A5BB1CDE900472B46072203219A
:10F1D00006F11000FFF74EFF002840F09F80338BB0
:10F1E0005BB1CDE900472B461522142106F118002A
:10F1F000FFF740FF002840F09180326A002A40F07B
:10F200009080D6F82480B8F1000F30D0B8F80430E0
:10F210002188981C8A1C0244BA423FF655AFFE284A
:10F220003FF652AF03336B54238801339BB2FF2266
:10F230002380EA54238801339BB22380B8F800204E
:10F24000EA54E918120A4A702088023080B22080FD
:10F25000B8F804205AB1D8F8081000296BD0284417
:10F2600000F01BFD2388B8F804201344238096F88F
:10F270002C30002B40F09A80307800284ED0338814
:10F28000012B58D0228802F1020CBC453FF61CAF7E
:10F29000012805D17378023313449F42FFF414AF61
:10F2A000023FBF1ABFB202A905EB0C00ADF808700F
:10F2B000FFF786FE90BB3178BDF80830022900F0D8
:10F2C000BA8072789A4202D3BB4240F2B2800129DE
:10F2D00040F0B380974293B2C0F0AF80ADF80830F1
:10F2E0000821BDF80830FE2B3FF6EEAE2288013330
:10F2F000AB542288013292B22280A954228813444E
:10F3000023800BE0CDE900472B460622022106F1BF
:10F310000800FFF7AFFE00283FF453AF05B0BDE88B
:10F32000F08FB4F800C00CF10603BB423FF6CCAE40
:10F330001188052901D80720F0E76FF4486E01EB2A
:10F340000E039BB24FF27D3E7345F4D95388052BD3
:10F35000F1D96FF44860181880B27045EBD94FF6B8
:10F36000FF70814203D0834201D09942E3D8052344
:10F3700005F80C30238801339BB212212380E95415
:10F38000238801339BB223801188E954E818090AC5
:10F390004170238802339BB223805288EA54E918D3
:10F3A000120A4A702388023323802AE7B36A002BAB
:10F3B000C1D04FF000094FF00C0A4FF0160B96F831
:10F3C0002C305FFA89F293427FF656AFB16A0AFB9E
:10F3D00002F201EB0208B8F80430981CFE283FF650
:10F3E00073AE208803332B54238801339BB22380D0
:10F3F00005F803B0238801339BB223808A5AEA546C
:10F40000E918120A4A702088023080B22080B8F8C9
:10F4100004205AB1D8F8081000298CD0284400F0F4
:10F420003CFC2388B8F804201344238009F1010927
:10F43000C5E7092155E7BB42FBD9ADF808704FE796
:10F44000034B1A8882420CBF18460020704700BF49
:10F4500010310020024B9B6903B11847704700BF71
:10F46000F430002037B50B46497A0F4A71B9D2E91A
:10F4700001141D7A0246002D18BF21465868FDF779
:10F4800070FE08B1FFF7E6FF03B030BD002119722E
:10F490005369002BF8D00122ADF806008DF8042046
:10F4A00001A89847F0E700BFF43000204B8802889D
:10F4B0009A4213D842889A4210D380888A8840F2B0
:10F4C000F313984294BF031AC31A934206D800F26A
:10F4D000F310904234BF0020012070470020704795
:10F4E0000388122B70B5014659D004D8102B1ED0BA
:10F4F000112B44D070BD502BFCD12F4BC288DB891F
:10F500009A42F7D1038A022BF4D186883046FFF75E
:10F5100097FF05460028EDD001F1120000F0E2F857
:10F5200038BB6868FDF735FE0028E3D009E0C37BEF
:10F53000012BDFD14FF6FF70FFF782FF054620B9A0
:10F540000420BDE87040FFF785BF1C4A8E88068006
:10F55000002303721368C0F80A305368C0F80E30F5
:10F5600010310A30FFF7A2FF134B6872DB89002BC2
:10F57000C0D129463046BDE87040FFF773BF808890
:10F58000FFF75EFF04460028B4D04068FDF701FE97
:10F5900008B1FFF75FFF4FF6FF732380AAE7868865
:10F5A0003046FFF74DFF05460028A3D008310A304A
:10F5B000FFF77CFF6872DCE7F43000202431002084
:10F5C0000AB1FEF7BFB8FEF7C6B873B50191019C4A
:10F5D00006466CB100252C46294601A8FEF7C5F861
:10F5E00018B106EB440301349D800135142DF3D18D
:10F5F0003046346002B070BD2DE9F0430388848842
:10F60000103B8DB00A2B1ED8DFE803F006361D1D17
:10F610001D1D1D1D1D573B002C4DAB68DB4300938A
:10F6200069686846FEF7CDF8009901A8FFF7CDFF9D
:10F630000DF108080027019B9F4207D3132C12D914
:10F640000420FDF78FFC0DB0BDE8F08338F8029B75
:10F6500000260136494605EB8600FEF77CF81E2E93
:10F66000F7D10137E7E721461948FEF76BF819484B
:10F670002146FEF767F8E6E715482146FEF76BF8E6
:10F68000E1E7027A14483F2A4FEA1215214694BF57
:10F6900000220122FFF794FF022D94BF00220122D5
:10F6A0000E482146FFF78CFF012D0D4894BF002224
:10F6B00001222146FFF784FFC5E7037A002BC2D160
:10F6C000427A0548C2F3C0022146F3E72C310020FC
:10F6D00034310020303100204431002040310020FE
:10F6E0003C310020007800F00100704710DF7047C7
:10F6F00013B5044609496846FEF774FB019808B93A
:10F7000002B010BDD0E900212046904718B16846EC
:10F71000FEF772FBF2E71120F2E700BF4806020095
:10F7200013B5044607496846FEF75CFB019B0BB91D
:10F7300002B010BD2046D3E9002190476846FEF78D
:10F740005BFBF3E7600602000B4991F816335A0998
:10F75000EC231341DB0706D5084B9A683AB94FF4FE
:10F7600080030B60704742F20200FDF7FBBB1A6892
:10F7700042F480021A60704700E100E0F42C00209F
:10F78000F7B5194F3C7864BB184E012520463570FB
:10F79000FFF7AEFF112821D02046FFF7C1FF144B21
:10F7A0008DF80340186801900DF10300FDF7CAFDC4
:10F7B000104901A8FFF79AFF0446B0FA80F040090B
:10F7C00038709DF80300FDF7E1FD3CB90A4B347039
:10F7D0001C70FFF7B9FF2846FFF7A2FF204603B0D1
:10F7E000F0BD0824FAE700BFA9310020A8310020AD
:10F7F0004206020081CF0100AA310020014B187897
:10F80000704700BFA931002007B508496846FEF7D8
:10F81000E9FA019B13B903B05DF804FBD3E90020BA
:10F8200090476846FEF7E8FAF3E700BF5406020087
:10F83000FFF7EABF60DF704769DF704761DF70473D
:10F8400030B5114DADF5017D4FF4FA740DF10201A3
:10F8500003A8ADF80240FFF7F1FF70B9294601A8EF
:10F86000FEF7C0FA029B002BF0D003A8D3E90021D9
:10F87000904701A8FEF7C0FAF4E7052801D0FDF78C
:10F8800071FB0DF5017D30BDE8080200024B1B78CD
:10F890000BB1FFF7D5BF7047AB31002030B505463F
:10F8A00085B00C46002900F0B2805A4B0B600C2248
:10F8B000002101A800F01AFA01238DF80630226811
:10F8C0008DF80450062301A92020ADF80830FFF779
:10F8D000B3FF60B1FEF7E0FA4F4B50490246504883
:10F8E0001B1ADB081B0443F00100FDF765F80C222E
:10F8F000002101A800F0FAF9012322688DF80530F3
:10F9000001A94020FFF798FF60B1FEF7C5FA424B0E
:10F910004449024642481B1ADB081B0443F001001D
:10F92000FDF74AF80C22002101A800F0DFF9F723C7
:10F9300022688DF8045001A92320ADF80630FFF7A6
:10F940007BFF60B1FEF7A8FA334B374902463448D3
:10F950001B1ADB081B0443F00100FDF72DF80C22F5
:10F96000002101A800F0C2F9012022688DF80400EE
:10F9700001A9FFF761FF60B1FEF78EFA264B2B4914
:10F98000024627481B1ADB081B0443F00100FDF761
:10F9900013F80C22002101A800F0A8F94FF4B0637D
:10F9A0002268019301A9A120FFF746FF60B1FEF78D
:10F9B00073FA194B1E49024619481B1ADB081B042F
:10F9C00043F00100FCF7F8FF0C22002101A800F031
:10F9D0008DF99DF8043022686FF3000301A9A0207F
:10F9E0008DF80430FFF728FF034668B1FEF754FA9C
:10F9F000094B104902460A481B1ADB081B0443F056
:10FA00000100FCF7D9FF0023184605B030BD0E23D6
:10FA1000FAE700BF0C260020A4FE01006C060200DD
:10FA200044FE0100B2060200FE0602004507020085
:10FA300091070200E207020073B505460668FFF76A
:10FA4000F9FE2B68B34204461DD91A481A4B1B49CC
:10FA50001B1ADB081B0443F002000190FCF7A8FF0F
:10FA60002B68174901983246FCF7AFFF4FF08053DF
:10FA70002A68D3F80C31134901989B0203F1005313
:10FA80009A1AFCF799FF2CB90F4B01221A702046E5
:10FA900002B070BD2046FEF7FFF9074B0B49024646
:10FAA00004481B1ADB081B0443F00100FCF784FF29
:10FAB000EDE700BF44FE0100A4FE0100350802008E
:10FAC0006408020095080200AB310020BF08020064
:10FAD0004BDF70471FB50D4C01A8FFF7F9FF70B958
:10FAE000214602A8FEF77EF9039B002BF4D0019873
:10FAF000D3E90021904702A8FEF77EF9F4E7052834
:10FB000001D0FDF72FFA04B010BD00BF00090200BC
:10FB100053EA020C61D02DE9F04BB3FA83F51E00D5
:10FB200007BFB2FA82F502FA05F403FA05F41646A5
:10FB3000C5F120051EBF22FA05F73C43203556EAE1
:10FB4000044C4FEA144418BF0134A3464FF0000997
:10FB5000C846904271EB030C39D3094207BFB0FA93
:10FB600080F700FA07F6B1FA81F701FA07F6C7F154
:10FB700020071EBF20FA07FC46EA0C062037B6FB1A
:10FB8000FBFC7F1B103F07F01F04C4F120060CFA9A
:10FB900004F42CFA06F644BF34460026202FA4BFF6
:10FBA0002646002454EA060C08BF012418EB04087A
:10FBB00049EB0609A4FB027CC01B06FB02CC04FB3C
:10FBC00003CC71EB0C01904271EB030CC5D20B46D8
:10FBD000024649464046BDE8F08BB2FBF3F2000016
:10FBE0007F2805D8034B185C034B5B5C18407047BB
:10FBF000002070471809020098090200A0F1610373
:10FC0000192B98BF20387047A0F14103192B98BFDA
:10FC1000203070477F2805D8034B185C034B5B5C92
:10FC20001840704700207047180902009809020028
:10FC3000A0F16103192B98BF20387047A0F1410350
:10FC4000192B98BF203070477F299ABF017001207F
:10FC50006FF02E0070475AB10A787F2A0AD800B197
:10FC60000260002119605960501A18BF01207047C6
:10FC7000002070476FF02E007047000008B5034B5E
:10FC80005B689B681B68984708BD00BF342600204E
:10FC900008B50921FFF7F2FF08BD844640EA0103D9
:10FCA00013F0030F18D18446202A0BD32DE9F00757
:10FCB000B1E8F807A0E8F807A2F12002202AF7D25D
:10FCC000BDE8F007042A07D351F8043B40F8043B91
:10FCD000A2F10402042AF7D2002A05D011F8013B50
:10FCE00000F8013B013AF9D1604670478446002A8A
:10FCF0002DD010F0030F04D000F8011B013A26D0DC
:10FD0000F7E7C9B241EA012141EA0141202A12D3B1
:10FD1000A2F120022DE9F0030B460C460D460E46DB
:10FD20000F4688468946A0E8FA03203AFBD2BDE890
:10FD3000F00320320BD0042A05D340F8041B043A08
:10FD400005D0042AF9D200F8011B013AFBD1604624
:10FD50007047024610F0030F16D111F0030F13D1B4
:10FD60002DE9F0004FF001374FF0803351F8044B8C
:10FD7000A4EB070525EA04051D4002D142F8044B17
:10FD8000F4E7A1F10401F0BC11F8013B02F8013BDA
:10FD9000002BF9D1704700F1010110F0030F11D0D1
:10FDA00010F8012B002A23D010F0030F0AD010F80E
:10FDB000012B002A1CD010F0030F03D010F8012BE8
:10FDC000002A15D02DE970004FF001324FF080333A
:10FDD00050F8044BA4EB020525EA04051D4000D1B0
:10FDE000F6E7A0F1040070BC10F8012B002AFBD14B
:06FDF000A0EB01007047CA
:08FDF800E9E101000000000038
:10FE0000F9F501000000000031EC010000000000E5
:08FE1000E1F401000000000014
:08FE180085E20100000000007A
:10FE20008DF8010000000000D5FA0100000000007C
:10FE30008C260020542700205C27002094260020D8
:04FE400018000000A6
:10FE44009A05020000000000A00502000000000066
:10FE5400A705020000000000AB050200000000003E
:10FE6400B00502000000000015FF010000000303BC
:10FE7400ECFF01000000000015000200000000007B
:10FE84003206020000000000940502000000000099
:10FE940025060200000003033A06020000000303E3
:10FEA400DC08020000000303F4080200000003035E
:10FEB40086000200000000008F0002000000000025
:10FEC400E8FE010000000000F4FE01000C26002002
:10FED4000000000000000000000000000338FDD80E
:10FEE40070470000D5C3010041C40100D1C3010023
:10FEF4007274745F6C6F675F6261636B656E6400DC
:10FF04004261636B656E647320666C7573686564C7
:10FF140000617070000000007C2B00207F00000056
:10FF2400FC2B00201B5B306D002573001B5B313BF9
:10FF340033316D0025734C6F67732064726F70707A
:10FF44006564202825642925730D0A003C25733E29
:10FF54002025733A2000202530327800202020000C
:10FF64007C002563001B5B313B33306D001B5B3130
:10FF74003B33326D001B5B313B33336D001B5B3114
:10FF84003B33346D001B5B313B33356D001B5B3100
:10FF94003B33366D001B5B313B33376D0077617249
:10FFA4006E696E6700696E666F00646562756700EE
:10FFB40028FF010069FF010030FF010071FF01000B
:10FFC40079FF010081FF010089FF010091FF010019
:10FFD40099FF01000000000002000200A1FF0100DF
:10FFE400A9FF0100AEFF01006170705F6275747457
:0CFFF4006F6E0000202C0020466174613C
:020000022000DC
:100000006C206572726F720053797374656D207223
:1000100065736574006170705F74696D657200006E
:1000200001000600000000006C2C0020F1CF010050
:1000300052544320696E7374616E636520616C7203
:100040006561647920696E697469616C697A656457
:100050002E005254433A20696E697469616C697A62
:1000600065642E0000000000000000000000000099
:100070000338FDD8704730313233343536373839AC
:100080004142434445467077725F6D676D740073FB
:100090006F72746C697374004E52465F53554343DC
:1000A000455353004E52465F4552524F525F53568E
:1000B000435F48414E444C45525F4D495353494E6E
:1000C00047004E52465F4552524F525F534F46547F
:1000D0004445564943455F4E4F545F454E41424C5F
:1000E0004544004E52465F4552524F525F494E546E
:1000F00045524E414C004E52465F4552524F525F60
:100100004E4F5F4D454D004E52465F4552524F5245
:100110005F4E4F545F464F554E44004E52465F452A
:1001200052524F525F4E4F545F535550504F52549E
:100130004544004E52465F4552524F525F494E561B
:10014000414C49445F504152414D004E52465F453B
:1001500052524F525F494E56414C49445F535441AD
:100160005445004E52465F4552524F525F494E56DB
:10017000414C49445F4C454E475448004E52465FFF
:100180004552524F525F494E56414C49445F464C8E
:10019000414753004E52465F4552524F525F494EBF
:1001A00056414C49445F44415441004E52465F45DC
:1001B00052524F525F444154415F53495A45004E99
:1001C00052465F4552524F525F54494D454F555428
:1001D000004E52465F4552524F525F4E554C4C00B6
:1001E0004E52465F4552524F525F464F524249442B
:1001F00044454E004E52465F4552524F525F494E63
:1002000056414C49445F41444452004E52465F457A
:1002100052524F525F42555359004E52465F45521B
:10022000524F525F434F4E4E5F434F554E54004E18
:1002300052465F4552524F525F5245534F555243BB
:100240004553004E52465F4552524F525F4D4F4408
:10025000554C455F4E4F545F494E495449414C49B6
:100260005A4544004E52465F4552524F525F4D55DB
:100270005445585F494E49545F4641494C454400F6
:100280004E52465F4552524F525F4D555445585F4E
:100290004C4F434B5F4641494C4544004E52465FEC
:1002A0004552524F525F4D555445585F554E4C4F35
:1002B000434B5F4641494C4544004E52465F4552D0
:1002C000524F525F4D555445585F434F4E445F491E
:1002D0004E49545F4641494C4544004E52465F45A5
:1002E00052524F525F4D4F44554C455F414C524521
:1002F0004144595F494E495449414C495A4544008B
:100300004E52465F4552524F525F53544F524147EF
:10031000455F46554C4C004E52465F4552524F5237
:100320005F4150495F4E4F545F494D504C454D45DC
:100330004E544544004E52465F4552524F525F461E
:100340004541545552455F4E4F545F454E41424CD6
:100350004544004E52465F4552524F525F494F5FEF
:1003600050454E44494E47004E52465F4552524F0B
:10037000525F4452565F5457495F4552525F4F5641
:10038000455252554E004E52465F4552524F525FB3
:100390004452565F5457495F4552525F414E414364
:1003A0004B004E52465F4552524F525F4452565F89
:1003B0005457495F4552525F444E41434B004E52A1
:1003C000465F4552524F525F424C455F4950535031
:1003D0005F52585F504B545F5452554E4341544501
:1003E00044004E52465F4552524F525F424C455F69
:1003F000495053505F4348414E4E454C5F414C522B
:10040000454144595F455849535453004E52465F45
:100410004552524F525F424C455F495053505F4CDA
:10042000494E4B5F444953434F4E4E454354454418
:10043000004E52465F4552524F525F424C455F4913
:100440005053505F504545525F52454A45435445CD
:100450004400556E6B6E6F776E206572726F7220FE
:10046000636F646500000000000000009800020057
:1004700001000000A400020002000000C20002000F
:1004800003000000E300020004000000F600020088
:100490000500000007010200060000001B01020029
:1004A0000700000033010200080000004B010200B9
:1004B00009000000630102000A0000007C01020044
:1004C0000B000000940102000C000000AB010200D0
:1004D0000D000000BF0102000E000000D10102006B
:1004E0000F000000E001020010000000F401020013
:1004F000110000000B020200120000001A020200AC
:10050000130000002F0202008000000043020200DE
:1005100081000000640202008200000080020200EC
:10052000830000009C02020084000000BA02020066
:1005300085000000DB0202008600000000030200CC
:100540009000000017030200910000003503020034
:1005500092000000530302000082000068030200C2
:10056000018200008603020002820000A203020052
:1005700000840000BE03020001840000E2030200C8
:10058000028400000C040200038400003104020015
:100590000D0E0F10636C6F636B00434C4F434B00A9
:1005A0004750494F54450050525300554152540052
:1005B00055415254450000000B00030009E80100BA
:1005C0000C00030009E801001800030009E801001D
:1005D0001900030009E80100A02D0020C02D002013
:1005E000E02D0020426561636F6E206578616D705B
:1005F0006C6520737461727465642E002052483AF1
:10060000202564002054454D503A202564200A0AD4
:10061000005465726D696E616C005254540053450C
:1006200047474552006E72665F626C655F67617432
:100630007400626C655F6E7573006E72665F7364E2
:10064000680001000007000018FE010018FE01000C
:100650000800000020FE010030FE0100080000003C
:1006600018FE010020FE01000800000073645F62B4
:100670006C655F6366675F736574282920726574B3
:1006800075726E6564202573207768656E206174CD
:1006900074656D7074696E6720746F207365742063
:1006A000424C455F434F4E4E5F4346475F47415084
:1006B0002E0073645F626C655F6366675F73657469
:1006C00028292072657475726E6564202573207701
:1006D00068656E20617474656D7074696E672074EE
:1006E0006F2073657420424C455F4741505F43461D
:1006F000475F524F4C455F434F554E542E00736435
:100700005F626C655F6366675F736574282920723A
:10071000657475726E6564202573207768656E2038
:10072000617474656D7074696E6720746F20736591
:100730007420424C455F434F4E4E5F4346475F47F0
:100740004154542E0073645F626C655F6366675F3B
:1007500073657428292072657475726E656420252E
:1007600073207768656E20617474656D7074696E4E
:100770006720746F2073657420424C455F434F4D72
:100780004D4F4E5F4346475F56535F555549442E84
:100790000073645F626C655F6366675F736574288E
:1007A000292072657475726E6564202573207768E0
:1007B000656E20617474656D7074696E6720746F06
:1007C0002073657420424C455F47415454535F4346
:1007D00046475F415454525F5441425F53495A4522
:1007E0002E0073645F626C655F6366675F73657438
:1007F00028292072657475726E65642025732077D0
:1008000068656E20617474656D7074696E672074BC
:100810006F2073657420424C455F47415454535FC9
:100820004346475F534552564943455F4348414E0F
:100830004745442E00496E73756666696369656E47
:10084000742052414D20616C6C6F6361746564204B
:10085000666F722074686520536F667444657669AC
:1008600063652E004368616E676520746865205279
:10087000414D207374617274206C6F636174696F91
:100880006E2066726F6D203078257820746F20306E
:100890007825782E004D6178696D756D2052414D37
:1008A0002073697A6520666F72206170706C69636D
:1008B0006174696F6E20697320307825782E00731B
:1008C000645F626C655F656E61626C652829207289
:1008D000657475726E65642025732E006E72665F96
:1008E0007364685F626C650000FE010018FE010021
:1008F000080000006E72665F7364685F736F630068
:10090000F8FD010000FE01000800000043000000A7
:10091000504F534958000000202020202020202044
:10092000206828282828202020202020202020205F
:1009300020202020202020204810101010101010FF
:100940001010101010101010848484848484848407
:100950008484101010101010108181818181810118
:100960000101010101010101010101010101010177
:100970000101011010101010108282828282820206
:100980000202020202020202020202020202020247
:1009900002020210101010200007032004170201A9
:1009A00008571040800000000C090200100A0200E5
:1009B000240B020053756E004D6F6E005475650078
:1009C000576564005468750046726900536174008D
:1009D000000000004A616E00466562004D617200D1
:1009E000417072004D6179004A756E004A756C0065
:1009F00041756700536570004F6374004E6F760059
:100A00004465630000000000414D00504D000000AF
:100A1000480B0200440B0200440B0200440B02008E
:100A2000440B0200440B0200440B0200440B020082
:100A3000440B0200440B0200FFFFFFFFFFFFFFFF1C
:100A4000FFFFFFFFFFFF0000840A0200B40902005D
:100A5000C00A0200D4090200080A0200680A020063
:100A6000180B0200740A0200256D2F25642F2579CA
:100A700000000000256120256220256520255420E6
:100A80002559000053756E646179004D6F6E646185
:100A9000790054756573646179005765646E657398
:100AA0006461790054687572736461790046726993
:100AB00064617900536174757264617900000000AB
:100AC0004A616E756172790046656272756172790C
:100AD000004D6172636800417072696C004D61790C
:100AE000004A756E65004A756C79004175677573CB
:100AF000740053657074656D626572004F63746F46
:100B0000626572004E6F76656D6265720044656362
:100B1000656D62657200000025483A254D3A2553FF
:100B200000000000E1FB0100FDFB010009FC0100E9
:100B300015FC010031FC01003DFC010049FC0100F5
:0A0B400057FC0100000000002E0029
:100B4C0000000000FF000000001001401100040034
:100B5C000090D003482E00201F0000000000000071
:100B6C0000000000FF000000A8090200A809020014
:0C0B7C00A8090200A8090200A809020054
:040000031000C375B1
:00000001FF
